{
  "abi": [
    {
      "inputs": [
        {
          "internalType": "uint256",
          "name": "baseEntryPriceWei_",
          "type": "uint256"
        },
        {
          "internalType": "uint256",
          "name": "priceIncreaseMultiplierBps_",
          "type": "uint256"
        },
        {
          "internalType": "address",
          "name": "creatorAddress_",
          "type": "address"
        },
        {
          "internalType": "uint256",
          "name": "keeperRewardWei_",
          "type": "uint256"
        },
        {
          "internalType": "uint256",
          "name": "creatorFeeWei_",
          "type": "uint256"
        }
      ],
      "stateMutability": "nonpayable",
      "type": "constructor"
    },
    {
      "inputs": [],
      "name": "AlreadyClaimed",
      "type": "error"
    },
    {
      "inputs": [
        {
          "internalType": "uint256",
          "name": "roundId",
          "type": "uint256"
        }
      ],
      "name": "AlreadyPlayedThisRound",
      "type": "error"
    },
    {
      "inputs": [
        {
          "internalType": "uint256",
          "name": "providedAmountWei",
          "type": "uint256"
        },
        {
          "internalType": "uint256",
          "name": "expectedAmountWeiOrMinWei",
          "type": "uint256"
        }
      ],
      "name": "InvalidAmount",
      "type": "error"
    },
    {
      "inputs": [],
      "name": "MaxParticipantsReached",
      "type": "error"
    },
    {
      "inputs": [],
      "name": "NoPendingAttempt",
      "type": "error"
    },
    {
      "inputs": [],
      "name": "NotEligibleForRound",
      "type": "error"
    },
    {
      "inputs": [],
      "name": "NothingToClaim",
      "type": "error"
    },
    {
      "inputs": [],
      "name": "PendingAttemptExists",
      "type": "error"
    },
    {
      "inputs": [],
      "name": "StaleBlockhash",
      "type": "error"
    },
    {
      "inputs": [],
      "name": "TooSoonToSettle",
      "type": "error"
    },
    {
      "anonymous": false,
      "inputs": [
        {
          "indexed": true,
          "internalType": "address",
          "name": "player",
          "type": "address"
        },
        {
          "indexed": true,
          "internalType": "uint256",
          "name": "roundId",
          "type": "uint256"
        },
        {
          "indexed": false,
          "internalType": "uint256",
          "name": "amount",
          "type": "uint256"
        }
      ],
      "name": "Claim",
      "type": "event"
    },
    {
      "anonymous": false,
      "inputs": [
        {
          "indexed": true,
          "internalType": "address",
          "name": "holder",
          "type": "address"
        },
        {
          "indexed": false,
          "internalType": "uint256",
          "name": "roundId",
          "type": "uint256"
        },
        {
          "indexed": false,
          "internalType": "uint256",
          "name": "newPrice",
          "type": "uint256"
        }
      ],
      "name": "NewHolder",
      "type": "event"
    },
    {
      "anonymous": false,
      "inputs": [
        {
          "indexed": false,
          "internalType": "uint256",
          "name": "newPot",
          "type": "uint256"
        }
      ],
      "name": "PotUpdated",
      "type": "event"
    },
    {
      "anonymous": false,
      "inputs": [
        {
          "indexed": true,
          "internalType": "uint256",
          "name": "roundId",
          "type": "uint256"
        },
        {
          "indexed": false,
          "internalType": "uint256",
          "name": "payoutAmount",
          "type": "uint256"
        },
        {
          "indexed": false,
          "internalType": "uint256",
          "name": "numEligible",
          "type": "uint256"
        },
        {
          "indexed": false,
          "internalType": "uint256",
          "name": "potAfter",
          "type": "uint256"
        }
      ],
      "name": "RoundEnded",
      "type": "event"
    },
    {
      "anonymous": false,
      "inputs": [
        {
          "indexed": true,
          "internalType": "address",
          "name": "player",
          "type": "address"
        },
        {
          "indexed": false,
          "internalType": "bool",
          "name": "win",
          "type": "bool"
        },
        {
          "indexed": false,
          "internalType": "uint256",
          "name": "randomness",
          "type": "uint256"
        },
        {
          "indexed": false,
          "internalType": "uint256",
          "name": "roundId",
          "type": "uint256"
        }
      ],
      "name": "Settle",
      "type": "event"
    },
    {
      "anonymous": false,
      "inputs": [
        {
          "indexed": true,
          "internalType": "uint256",
          "name": "roundId",
          "type": "uint256"
        }
      ],
      "name": "SponsorCleared",
      "type": "event"
    },
    {
      "anonymous": false,
      "inputs": [
        {
          "indexed": true,
          "internalType": "address",
          "name": "previousSponsor",
          "type": "address"
        },
        {
          "indexed": false,
          "internalType": "uint256",
          "name": "refundAmount",
          "type": "uint256"
        },
        {
          "indexed": false,
          "internalType": "uint256",
          "name": "roundId",
          "type": "uint256"
        }
      ],
      "name": "SponsorReplaced",
      "type": "event"
    },
    {
      "anonymous": false,
      "inputs": [
        {
          "indexed": true,
          "internalType": "address",
          "name": "sponsor",
          "type": "address"
        },
        {
          "indexed": false,
          "internalType": "uint256",
          "name": "amount",
          "type": "uint256"
        },
        {
          "indexed": false,
          "internalType": "string",
          "name": "message",
          "type": "string"
        },
        {
          "indexed": false,
          "internalType": "uint256",
          "name": "roundId",
          "type": "uint256"
        }
      ],
      "name": "SponsorUpdated",
      "type": "event"
    },
    {
      "anonymous": false,
      "inputs": [
        {
          "indexed": true,
          "internalType": "address",
          "name": "player",
          "type": "address"
        },
        {
          "indexed": false,
          "internalType": "uint256",
          "name": "pricePaid",
          "type": "uint256"
        },
        {
          "indexed": false,
          "internalType": "uint256",
          "name": "targetBlock",
          "type": "uint256"
        },
        {
          "indexed": false,
          "internalType": "uint256",
          "name": "roundId",
          "type": "uint256"
        }
      ],
      "name": "Take",
      "type": "event"
    },
    {
      "stateMutability": "payable",
      "type": "fallback"
    },
    {
      "inputs": [],
      "name": "availablePot",
      "outputs": [
        {
          "internalType": "uint256",
          "name": "",
          "type": "uint256"
        }
      ],
      "stateMutability": "view",
      "type": "function"
    },
    {
      "inputs": [],
      "name": "baseEntryPriceWei",
      "outputs": [
        {
          "internalType": "uint256",
          "name": "",
          "type": "uint256"
        }
      ],
      "stateMutability": "view",
      "type": "function"
    },
    {
      "inputs": [
        {
          "internalType": "uint256",
          "name": "roundId",
          "type": "uint256"
        }
      ],
      "name": "claim",
      "outputs": [],
      "stateMutability": "nonpayable",
      "type": "function"
    },
    {
      "inputs": [],
      "name": "creatorAddress",
      "outputs": [
        {
          "internalType": "address",
          "name": "",
          "type": "address"
        }
      ],
      "stateMutability": "view",
      "type": "function"
    },
    {
      "inputs": [],
      "name": "creatorFeeWei",
      "outputs": [
        {
          "internalType": "uint256",
          "name": "",
          "type": "uint256"
        }
      ],
      "stateMutability": "view",
      "type": "function"
    },
    {
      "inputs": [],
      "name": "currentEntryPriceWei",
      "outputs": [
        {
          "internalType": "uint256",
          "name": "",
          "type": "uint256"
        }
      ],
      "stateMutability": "view",
      "type": "function"
    },
    {
      "inputs": [],
      "name": "currentHolderAddress",
      "outputs": [
        {
          "internalType": "address",
          "name": "",
          "type": "address"
        }
      ],
      "stateMutability": "view",
      "type": "function"
    },
    {
      "inputs": [],
      "name": "currentRoundId",
      "outputs": [
        {
          "internalType": "uint256",
          "name": "",
          "type": "uint256"
        }
      ],
      "stateMutability": "view",
      "type": "function"
    },
    {
      "inputs": [],
      "name": "currentRoundSponsorInfo",
      "outputs": [
        {
          "internalType": "address",
          "name": "sponsorAddress",
          "type": "address"
        },
        {
          "internalType": "uint256",
          "name": "sponsoredAmountWei",
          "type": "uint256"
        },
        {
          "internalType": "string",
          "name": "sponsorMessage",
          "type": "string"
        }
      ],
      "stateMutability": "view",
      "type": "function"
    },
    {
      "inputs": [
        {
          "internalType": "uint256",
          "name": "",
          "type": "uint256"
        },
        {
          "internalType": "address",
          "name": "",
          "type": "address"
        }
      ],
      "name": "didHoldInRound",
      "outputs": [
        {
          "internalType": "bool",
          "name": "",
          "type": "bool"
        }
      ],
      "stateMutability": "view",
      "type": "function"
    },
    {
      "inputs": [],
      "name": "getSponsor",
      "outputs": [
        {
          "internalType": "address",
          "name": "sponsor",
          "type": "address"
        },
        {
          "internalType": "uint256",
          "name": "amount",
          "type": "uint256"
        },
        {
          "internalType": "string",
          "name": "message",
          "type": "string"
        }
      ],
      "stateMutability": "view",
      "type": "function"
    },
    {
      "inputs": [
        {
          "internalType": "uint256",
          "name": "",
          "type": "uint256"
        },
        {
          "internalType": "address",
          "name": "",
          "type": "address"
        }
      ],
      "name": "hasClaimedForRound",
      "outputs": [
        {
          "internalType": "bool",
          "name": "",
          "type": "bool"
        }
      ],
      "stateMutability": "view",
      "type": "function"
    },
    {
      "inputs": [],
      "name": "hasPending",
      "outputs": [
        {
          "internalType": "bool",
          "name": "",
          "type": "bool"
        }
      ],
      "stateMutability": "view",
      "type": "function"
    },
    {
      "inputs": [
        {
          "internalType": "uint256",
          "name": "",
          "type": "uint256"
        },
        {
          "internalType": "address",
          "name": "",
          "type": "address"
        }
      ],
      "name": "hasPlayedInRound",
      "outputs": [
        {
          "internalType": "bool",
          "name": "",
          "type": "bool"
        }
      ],
      "stateMutability": "view",
      "type": "function"
    },
    {
      "inputs": [],
      "name": "keeperRewardWei",
      "outputs": [
        {
          "internalType": "uint256",
          "name": "",
          "type": "uint256"
        }
      ],
      "stateMutability": "view",
      "type": "function"
    },
    {
      "inputs": [
        {
          "internalType": "uint256",
          "name": "",
          "type": "uint256"
        },
        {
          "internalType": "uint256",
          "name": "",
          "type": "uint256"
        }
      ],
      "name": "participantsByRound",
      "outputs": [
        {
          "internalType": "address",
          "name": "",
          "type": "address"
        }
      ],
      "stateMutability": "view",
      "type": "function"
    },
    {
      "inputs": [],
      "name": "pendingAttempt",
      "outputs": [
        {
          "internalType": "address",
          "name": "playerAddress",
          "type": "address"
        },
        {
          "internalType": "uint256",
          "name": "amountPaidWei",
          "type": "uint256"
        },
        {
          "internalType": "uint256",
          "name": "settlementTargetBlockNumber",
          "type": "uint256"
        },
        {
          "internalType": "uint256",
          "name": "createdInRoundId",
          "type": "uint256"
        },
        {
          "internalType": "bool",
          "name": "exists",
          "type": "bool"
        }
      ],
      "stateMutability": "view",
      "type": "function"
    },
    {
      "inputs": [],
      "name": "pendingTargetBlock",
      "outputs": [
        {
          "internalType": "uint256",
          "name": "",
          "type": "uint256"
        }
      ],
      "stateMutability": "view",
      "type": "function"
    },
    {
      "inputs": [],
      "name": "potBalanceWei",
      "outputs": [
        {
          "internalType": "uint256",
          "name": "",
          "type": "uint256"
        }
      ],
      "stateMutability": "view",
      "type": "function"
    },
    {
      "inputs": [],
      "name": "priceIncreaseMultiplierBps",
      "outputs": [
        {
          "internalType": "uint256",
          "name": "",
          "type": "uint256"
        }
      ],
      "stateMutability": "view",
      "type": "function"
    },
    {
      "inputs": [
        {
          "internalType": "uint256",
          "name": "",
          "type": "uint256"
        }
      ],
      "name": "roundIdToRoundInfo",
      "outputs": [
        {
          "internalType": "uint256",
          "name": "totalPayoutAmountWei",
          "type": "uint256"
        },
        {
          "internalType": "uint256",
          "name": "totalNumEligibleHolders",
          "type": "uint256"
        },
        {
          "internalType": "bool",
          "name": "isFinalized",
          "type": "bool"
        }
      ],
      "stateMutability": "view",
      "type": "function"
    },
    {
      "inputs": [],
      "name": "settle",
      "outputs": [],
      "stateMutability": "nonpayable",
      "type": "function"
    },
    {
      "inputs": [
        {
          "internalType": "string",
          "name": "message_",
          "type": "string"
        }
      ],
      "name": "sponsorPot",
      "outputs": [],
      "stateMutability": "payable",
      "type": "function"
    },
    {
      "inputs": [],
      "name": "sponsorReservedWei",
      "outputs": [
        {
          "internalType": "uint256",
          "name": "",
          "type": "uint256"
        }
      ],
      "stateMutability": "view",
      "type": "function"
    },
    {
      "inputs": [],
      "name": "take",
      "outputs": [],
      "stateMutability": "payable",
      "type": "function"
    },
    {
      "inputs": [],
      "name": "totalReservedForClaimsWei",
      "outputs": [
        {
          "internalType": "uint256",
          "name": "",
          "type": "uint256"
        }
      ],
      "stateMutability": "view",
      "type": "function"
    },
    {
      "inputs": [
        {
          "internalType": "uint256",
          "name": "",
          "type": "uint256"
        }
      ],
      "name": "uniqueHoldersCountInRound",
      "outputs": [
        {
          "internalType": "uint256",
          "name": "",
          "type": "uint256"
        }
      ],
      "stateMutability": "view",
      "type": "function"
    },
    {
      "inputs": [
        {
          "internalType": "address",
          "name": "newCreatorAddress",
          "type": "address"
        }
      ],
      "name": "updateCreatorAddress",
      "outputs": [],
      "stateMutability": "nonpayable",
      "type": "function"
    },
    {
      "stateMutability": "payable",
      "type": "receive"
    }
  ],
  "bytecode": {
    "object": "0x61010060405260016014553480156200001757600080fd5b5060405162002a2038038062002a208339810160408190526200003a916200014a565b600085116200007e5760405162461bcd60e51b815260206004820152600b60248201526a06261736550726963653d360ac1b60448201526064015b60405180910390fd5b612710841015620000c25760405162461bcd60e51b815260206004820152600d60248201526c0daead8e8d2e0d8d2cae47862f609b1b604482015260640162000075565b6001600160a01b038316620001065760405162461bcd60e51b8152602060048201526009602482015268063726561746f723d360bc1b604482015260640162000075565b608085905260a09390935260c05260e0919091526000919091556001600255601580546001600160a01b0319166001600160a01b03909216919091179055620001a3565b600080600080600060a086880312156200016357600080fd5b85516020870151604088015191965094506001600160a01b03811681146200018a57600080fd5b6060870151608090970151959894975095949392505050565b60805160a05160c05160e05161282062000200600039600081816105b501528181611dac0152611dd90152600081816102fe015261083c0152600081816103ab0152611cdd015260008181610233015261222601526128206000f3fe6080604052600436106101bb5760003560e01c80635b4e628b116100ec578063b3115ba61161008a578063d4c8a82a11610064578063d4c8a82a14610612578063e04efec41461066e578063e927fc5c14610683578063f1152677146106b05761020f565b8063b3115ba61461058d578063b9ae771b146105a3578063ba541cef146105d75761020f565b806399de4a22116100c657806399de4a22146105105780639cbe5efd14610526578063a9c29d911461053c578063aed16138146105525761020f565b80635b4e628b146104275780636accd0ab1461046257806391c07823146104e35761020f565b8063379607f511610159578063461caa3d11610133578063461caa3d146103995780635236434c146103cd5780635708b4cf146103f15780635876aeec146104115761020f565b8063379607f5146103405780633b574ee21461036057806342a5bf3d146103845761020f565b8063159090bd11610195578063159090bd146102925780632492ef591461029a5780632f9cb8f2146102ec578063316b9641146103205761020f565b80630561d1d21461022157806311da60b414610268578063150a54be1461027f5761020f565b3661020f5734600360008282546101d29190612302565b90915550506003546040519081527f2ba2169cd2502a6cc4fd55f87f2dcbceef588b593aa4fdc883d4fc62e65ed6a99060200160405180910390a1005b34600360008282546101d29190612302565b34801561022d57600080fd5b506102557f000000000000000000000000000000000000000000000000000000000000000081565b6040519081526020015b60405180910390f35b34801561027457600080fd5b5061027d6106c5565b005b61027d61028d36600461231b565b610b05565b61027d611158565b3480156102a657600080fd5b506001546102c79073ffffffffffffffffffffffffffffffffffffffff1681565b60405173ffffffffffffffffffffffffffffffffffffffff909116815260200161025f565b3480156102f857600080fd5b506102557f000000000000000000000000000000000000000000000000000000000000000081565b34801561032c57600080fd5b5061027d61033b3660046123b6565b6114d9565b34801561034c57600080fd5b5061027d61035b3660046123d8565b61161e565b34801561036c57600080fd5b506103756119c3565b60405161025f939291906123f1565b34801561039057600080fd5b50600754610255565b3480156103a557600080fd5b506102557f000000000000000000000000000000000000000000000000000000000000000081565b3480156103d957600080fd5b5060095460ff165b604051901515815260200161025f565b3480156103fd57600080fd5b506102c761040c366004612482565b611a75565b34801561041d57600080fd5b5061025560045481565b34801561043357600080fd5b506103e16104423660046124a4565b600c60209081526000928352604080842090915290825290205460ff1681565b34801561046e57600080fd5b506005546006546007546008546009546104a29473ffffffffffffffffffffffffffffffffffffffff169392919060ff1685565b6040805173ffffffffffffffffffffffffffffffffffffffff909616865260208601949094529284019190915260608301521515608082015260a00161025f565b3480156104ef57600080fd5b506102556104fe3660046123d8565b600b6020526000908152604090205481565b34801561051c57600080fd5b5061025560135481565b34801561053257600080fd5b5061025560025481565b34801561054857600080fd5b5061025560005481565b34801561055e57600080fd5b506103e161056d3660046124a4565b600a60209081526000928352604080842090915290825290205460ff1681565b34801561059957600080fd5b5061025560035481565b3480156105af57600080fd5b506102557f000000000000000000000000000000000000000000000000000000000000000081565b3480156105e357600080fd5b506103e16105f23660046124a4565b600f60209081526000928352604080842090915290825290205460ff1681565b34801561061e57600080fd5b5061065161062d3660046123d8565b600e6020526000908152604090208054600182015460029092015490919060ff1683565b60408051938452602084019290925215159082015260600161025f565b34801561067a57600080fd5b50610255611aba565b34801561068f57600080fd5b506015546102c79073ffffffffffffffffffffffffffffffffffffffff1681565b3480156106bc57600080fd5b50610375611ac9565b600260145403610736576040517f08c379a000000000000000000000000000000000000000000000000000000000815260206004820152600a60248201527f5245454e5452414e43590000000000000000000000000000000000000000000060448201526064015b60405180910390fd5b60026014556040805160a08101825260055473ffffffffffffffffffffffffffffffffffffffff168152600654602082015260075491810191909152600854606082015260095460ff161515608082018190526107bf576040517fdefc4c3400000000000000000000000000000000000000000000000000000000815260040160405180910390fd5b80604001514310156107fd576040517ffe8e911400000000000000000000000000000000000000000000000000000000815260040160405180910390fd5b6040810151408061083a576040517f1e41751d00000000000000000000000000000000000000000000000000000000815260040160405180910390fd5b7f0000000000000000000000000000000000000000000000000000000000000000801561095557600061086b611bb1565b905060008183111561087d578161087f565b825b9050801561095257806003600082825461089991906124d0565b9091555050604051600090339083908381818185875af1925050503d80600081146108e0576040519150601f19603f3d011682016040523d82523d6000602084013e6108e5565b606091505b5050905080610950576040517f08c379a000000000000000000000000000000000000000000000000000000000815260206004820152601160248201527f6b656570657220706179206661696c6564000000000000000000000000000000604482015260640161072d565b505b50505b8251606080850151604080516020810187905273ffffffffffffffffffffffffffffffffffffffff9094169084015290820152600090608001604080517fffffffffffffffffffffffffffffffffffffffffffffffffffffffffffffffe081840301815291815281516020928301206002546000908152600d909352908220549092506032116109e7575060006109f8565b60086109f4600a84612512565b1090505b600580547fffffffffffffffffffffffff0000000000000000000000000000000000000000169055600060068190556007819055600855600980547fffffffffffffffffffffffffffffffffffffffffffffffffffffffffffffff001690558015610a8e578451610a6890611bda565b6002546000908152600d6020526040902054603211610a8957610a89611d9b565b610a96565b610a96611d9b565b8451606080870151604080518515158152602081018790529081019190915273ffffffffffffffffffffffffffffffffffffffff909216917f70269c4de1853bd69b10c1bd439721e36732825ce14e2fbc5213febaacaaf9af910160405180910390a250506001601455505050565b600260145403610b71576040517f08c379a000000000000000000000000000000000000000000000000000000000815260206004820152600a60248201527f5245454e5452414e435900000000000000000000000000000000000000000000604482015260640161072d565b6002601455670de0b6b3a7640000341015610bc8576040517f7c83fcf0000000000000000000000000000000000000000000000000000000008152346004820152670de0b6b3a7640000602482015260440161072d565b604080516060810182526010805473ffffffffffffffffffffffffffffffffffffffff16825260115460208301526012805460009484019190610c0a90612526565b80601f0160208091040260200160405190810160405280929190818152602001828054610c3690612526565b8015610c835780601f10610c5857610100808354040283529160200191610c83565b820191906000526020600020905b815481529060010190602001808311610c6657829003601f168201915b50505091909252505081519192505073ffffffffffffffffffffffffffffffffffffffff16610e23573460036000828254610cbe9190612302565b925050819055503460136000828254610cd79190612302565b9250508190555060405180606001604052803373ffffffffffffffffffffffffffffffffffffffff16815260200134815260200184848080601f01602080910402602001604051908101604052809392919081815260200183838082843760009201919091525050509152508051601080547fffffffffffffffffffffffff00000000000000000000000000000000000000001673ffffffffffffffffffffffffffffffffffffffff90921691909117815560208201516011556040820151601290610da390826125f7565b50506003546040519081527f2ba2169cd2502a6cc4fd55f87f2dcbceef588b593aa4fdc883d4fc62e65ed6a9915060200160405180910390a160025460405133917fbcd59d41754af57ee9503b878894bf5fdadb31acb76cb009eacf72ea6ad0822a91610e1591349188918891612711565b60405180910390a25061114f565b6000610e388260200151612ee061271061224c565b905080341015610e7d576040517f7c83fcf00000000000000000000000000000000000000000000000000000000081523460048201526024810182905260440161072d565b3460036000828254610e8f9190612302565b925050819055503460136000828254610ea89190612302565b90915550506003546040519081527f2ba2169cd2502a6cc4fd55f87f2dcbceef588b593aa4fdc883d4fc62e65ed6a99060200160405180910390a1816020015160136000828254610ef991906124d0565b9091555050602082015160038054600090610f159084906124d0565b90915550508151602083015160405160009273ffffffffffffffffffffffffffffffffffffffff1691908381818185875af1925050503d8060008114610f77576040519150601f19603f3d011682016040523d82523d6000602084013e610f7c565b606091505b5050905080610fe7576040517f08c379a000000000000000000000000000000000000000000000000000000000815260206004820152601560248201527f73706f6e736f7220726566756e64206661696c65640000000000000000000000604482015260640161072d565b8251602080850151600254604080519283529282015273ffffffffffffffffffffffffffffffffffffffff909216917f93d8bd2b89791caf148e673fa7f739059c13c17f8c3bfc937f953be7257e8110910160405180910390a260405180606001604052803373ffffffffffffffffffffffffffffffffffffffff16815260200134815260200186868080601f01602080910402602001604051908101604052809392919081815260200183838082843760009201919091525050509152508051601080547fffffffffffffffffffffffff00000000000000000000000000000000000000001673ffffffffffffffffffffffffffffffffffffffff9092169190911781556020820151601155604082015160129061110690826125f7565b50506002546040513392507fbcd59d41754af57ee9503b878894bf5fdadb31acb76cb009eacf72ea6ad0822a916111439134918a918a9190612711565b60405180910390a25050505b50506001601455565b6002601454036111c4576040517f08c379a000000000000000000000000000000000000000000000000000000000815260206004820152600a60248201527f5245454e5452414e435900000000000000000000000000000000000000000000604482015260640161072d565b600260145560095460ff1615611206576040517f3eed9ae900000000000000000000000000000000000000000000000000000000815260040160405180910390fd5b6002546000908152600d602052604090205460328110611252576040517f6c8c8d2100000000000000000000000000000000000000000000000000000000815260040160405180910390fd5b6031811460008161126557600054611268565b60005b90508034146112ac576040517f7c83fcf00000000000000000000000000000000000000000000000000000000081523460048201526024810182905260440161072d565b6002546000908152600c6020908152604080832033845290915290205460ff1615611309576002546040517f666ad0c700000000000000000000000000000000000000000000000000000000815260040161072d91815260200190565b600280546000908152600c602090815260408083203380855290835281842080547fffffffffffffffffffffffffffffffffffffffffffffffffffffffffffffff0016600190811790915594548452600d8352908320805494850181558352912090910180547fffffffffffffffffffffffff000000000000000000000000000000000000000016909117905534156113ea5734600360008282546113ae9190612302565b90915550506003546040519081527f2ba2169cd2502a6cc4fd55f87f2dcbceef588b593aa4fdc883d4fc62e65ed6a99060200160405180910390a15b60006113f7436001612302565b6040805160a08101825233808252346020808401829052838501869052600254606080860182905260016080909601869052600580547fffffffffffffffffffffffff00000000000000000000000000000000000000001686179055600684905560078890556008829055600980547fffffffffffffffffffffffffffffffffffffffffffffffffffffffffffffff00169096179095558551928352908201869052938101939093529293507f6c5dd09f0a96a53c958d8e8898a12d877ec2853d8e61f9cb45c0c36adaf900c9910160405180910390a2505060016014555050565b60155473ffffffffffffffffffffffffffffffffffffffff16331461155a576040517f08c379a000000000000000000000000000000000000000000000000000000000815260206004820152600b60248201527f6e6f742d63726561746f72000000000000000000000000000000000000000000604482015260640161072d565b73ffffffffffffffffffffffffffffffffffffffff81166115d7576040517f08c379a000000000000000000000000000000000000000000000000000000000815260206004820152600960248201527f63726561746f723d300000000000000000000000000000000000000000000000604482015260640161072d565b601580547fffffffffffffffffffffffff00000000000000000000000000000000000000001673ffffffffffffffffffffffffffffffffffffffff92909216919091179055565b60026014540361168a576040517f08c379a000000000000000000000000000000000000000000000000000000000815260206004820152600a60248201527f5245454e5452414e435900000000000000000000000000000000000000000000604482015260640161072d565b600260148190556000828152600e60209081526040918290208251606081018452815481526001820154928101929092529092015460ff161515908201819052611700576040517f969bf72800000000000000000000000000000000000000000000000000000000815260040160405180910390fd5b6000828152600a6020908152604080832033845290915290205460ff16611753576040517f622aebc300000000000000000000000000000000000000000000000000000000815260040160405180910390fd5b6000828152600f6020908152604080832033845290915290205460ff16156117a7576040517f646cf55800000000000000000000000000000000000000000000000000000000815260040160405180910390fd5b600081602001516000146117cb57602082015182516117c6919061276f565b6117ce565b60005b90508060000361180a576040517f969bf72800000000000000000000000000000000000000000000000000000000815260040160405180910390fd5b6000838152600f60209081526040808320338452909152902080547fffffffffffffffffffffffffffffffffffffffffffffffffffffffffffffff001660011790556004548111156118b8576040517f08c379a000000000000000000000000000000000000000000000000000000000815260206004820152601160248201527f7265736572766520756e646572666c6f77000000000000000000000000000000604482015260640161072d565b80600460008282546118ca91906124d0565b9091555050604051600090339083908381818185875af1925050503d8060008114611911576040519150601f19603f3d011682016040523d82523d6000602084013e611916565b606091505b5050905080611981576040517f08c379a000000000000000000000000000000000000000000000000000000000815260206004820152601560248201527f636c61696d207472616e73666572206661696c65640000000000000000000000604482015260640161072d565b604051828152849033907f34fcbac0073d7c3d388e51312faf357774904998eeb8fca628b9e6f65ee1cbf79060200160405180910390a3505060016014555050565b601080546011546012805473ffffffffffffffffffffffffffffffffffffffff9093169391926119f290612526565b80601f0160208091040260200160405190810160405280929190818152602001828054611a1e90612526565b8015611a6b5780601f10611a4057610100808354040283529160200191611a6b565b820191906000526020600020905b815481529060010190602001808311611a4e57829003601f168201915b5050505050905083565b600d6020528160005260406000208181548110611a9157600080fd5b60009182526020909120015473ffffffffffffffffffffffffffffffffffffffff169150829050565b6000611ac4611bb1565b905090565b60408051606081810183526010805473ffffffffffffffffffffffffffffffffffffffff168352601154602084015260128054600095869586949093909291840191611b1490612526565b80601f0160208091040260200160405190810160405280929190818152602001828054611b4090612526565b8015611b8d5780601f10611b6257610100808354040283529160200191611b8d565b820191906000526020600020905b815481529060010190602001808311611b7057829003601f168201915b50505091909252505081516020830151604090930151909792965094509092505050565b60035460135460009190808211611bc9576000611bd3565b611bd381836124d0565b9250505090565b6002546000908152600a6020908152604080832073ffffffffffffffffffffffffffffffffffffffff8516845290915290205460ff16611c9457600280546000908152600a6020908152604080832073ffffffffffffffffffffffffffffffffffffffff86168452825280832080547fffffffffffffffffffffffffffffffffffffffffffffffffffffffffffffff0016600190811790915593548352600b90915281208054909190611c8e908490612302565b90915550505b600180547fffffffffffffffffffffffff00000000000000000000000000000000000000001673ffffffffffffffffffffffffffffffffffffffff8316179055600054611d04907f000000000000000000000000000000000000000000000000000000000000000061271061224c565b600081905560025460408051918252602082019290925273ffffffffffffffffffffffffffffffffffffffff8316917e40870511fcd025e35c10818502bec08721e7745dbed12dc9d96f6427581411910160405180910390a27f2ba2169cd2502a6cc4fd55f87f2dcbceef588b593aa4fdc883d4fc62e65ed6a9600354604051611d9091815260200190565b60405180910390a150565b6000611da5611bb1565b90506000817f00000000000000000000000000000000000000000000000000000000000000001115611dd75781611df9565b7f00000000000000000000000000000000000000000000000000000000000000005b90508015611ee4578060036000828254611e1391906124d0565b909155505060155460405160009173ffffffffffffffffffffffffffffffffffffffff169083908381818185875af1925050503d8060008114611e72576040519150601f19603f3d011682016040523d82523d6000602084013e611e77565b606091505b5050905080611ee2576040517f08c379a000000000000000000000000000000000000000000000000000000000815260206004820152601260248201527f63726561746f7220706179206661696c65640000000000000000000000000000604482015260640161072d565b505b6002546000908152600d602052604081205490811561205c576000611f07611bb1565b9150819050801561205a578160036000828254611f2491906124d0565b9091555060009050611f36848461276f565b90508015612058576002546000908152600d60205260408120805490915b81811015612054576000838281548110611f7057611f70612783565b600091825260208220015460405173ffffffffffffffffffffffffffffffffffffffff9091169187919081818185875af1925050503d8060008114611fd1576040519150601f19603f3d011682016040523d82523d6000602084013e611fd6565b606091505b5050905080612041576040517f08c379a000000000000000000000000000000000000000000000000000000000815260206004820152601660248201527f7061727469636970616e7420706179206661696c656400000000000000000000604482015260640161072d565b508061204c816127b2565b915050611f54565b5050505b505b505b604080516060808201835283825260208083018681526001848601818152600280546000908152600e8652889020965187559251918601919091555193810180547fffffffffffffffffffffffffffffffffffffffffffffffffffffffffffffff00169415159490941790935591546003548451868152938401879052938301939093527fff9d41e1547acb5eda1e3bac0c795f57760c96016cdd641af6bdd90270a768f3910160405180910390a27f2ba2169cd2502a6cc4fd55f87f2dcbceef588b593aa4fdc883d4fc62e65ed6a960035460405161213e91815260200190565b60405180910390a16000601354118061216e575060105473ffffffffffffffffffffffffffffffffffffffff1615155b156121e25760006013819055601080547fffffffffffffffffffffffff00000000000000000000000000000000000000001681556011829055906121b360128261227d565b50506002546040517f2aceb5e6de828c86a2adae4aee75a748979d2e1108b075412b068d8764aaa99090600090a25b6001600260008282546121f59190612302565b9091555050600180547fffffffffffffffffffffffff000000000000000000000000000000000000000016905550507f00000000000000000000000000000000000000000000000000000000000000006000555050565b6000838302801561227157826001848301038161226b5761226b6124e3565b04612274565b60005b95945050505050565b50805461228990612526565b6000825580601f10612299575050565b601f0160209004906000526020600020908101906122b791906122ba565b50565b5b808211156122cf57600081556001016122bb565b5090565b7f4e487b7100000000000000000000000000000000000000000000000000000000600052601160045260246000fd5b80820180821115612315576123156122d3565b92915050565b6000806020838503121561232e57600080fd5b823567ffffffffffffffff8082111561234657600080fd5b818501915085601f83011261235a57600080fd5b81358181111561236957600080fd5b86602082850101111561237b57600080fd5b60209290920196919550909350505050565b803573ffffffffffffffffffffffffffffffffffffffff811681146123b157600080fd5b919050565b6000602082840312156123c857600080fd5b6123d18261238d565b9392505050565b6000602082840312156123ea57600080fd5b5035919050565b73ffffffffffffffffffffffffffffffffffffffff8416815260006020848184015260606040840152835180606085015260005b8181101561244157858101830151858201608001528201612425565b5060006080828601015260807fffffffffffffffffffffffffffffffffffffffffffffffffffffffffffffffe0601f83011685010192505050949350505050565b6000806040838503121561249557600080fd5b50508035926020909101359150565b600080604083850312156124b757600080fd5b823591506124c76020840161238d565b90509250929050565b81810381811115612315576123156122d3565b7f4e487b7100000000000000000000000000000000000000000000000000000000600052601260045260246000fd5b600082612521576125216124e3565b500690565b600181811c9082168061253a57607f821691505b602082108103612573577f4e487b7100000000000000000000000000000000000000000000000000000000600052602260045260246000fd5b50919050565b7f4e487b7100000000000000000000000000000000000000000000000000000000600052604160045260246000fd5b601f8211156125f257600081815260208120601f850160051c810160208610156125cf5750805b601f850160051c820191505b818110156125ee578281556001016125db565b5050505b505050565b815167ffffffffffffffff81111561261157612611612579565b6126258161261f8454612526565b846125a8565b602080601f83116001811461267857600084156126425750858301515b7fffffffffffffffffffffffffffffffffffffffffffffffffffffffffffffffff600386901b1c1916600185901b1785556125ee565b6000858152602081207fffffffffffffffffffffffffffffffffffffffffffffffffffffffffffffffe08616915b828110156126c5578886015182559484019460019091019084016126a6565b508582101561270157878501517fffffffffffffffffffffffffffffffffffffffffffffffffffffffffffffffff600388901b60f8161c191681555b5050505050600190811b01905550565b8481526060602082015282606082015282846080830137600060808483010152600060807fffffffffffffffffffffffffffffffffffffffffffffffffffffffffffffffe0601f860116830101905082604083015295945050505050565b60008261277e5761277e6124e3565b500490565b7f4e487b7100000000000000000000000000000000000000000000000000000000600052603260045260246000fd5b60007fffffffffffffffffffffffffffffffffffffffffffffffffffffffffffffffff82036127e3576127e36122d3565b506001019056fea26469706673582212200f2b54864b3b4d2c97a78ed7c4d906df134612f5603839adea203dcf702cc57b64736f6c63430008130033",
    "linkReferences": {}
  },
  "methodIdentifiers": {
    "availablePot()": "e04efec4",
    "baseEntryPriceWei()": "0561d1d2",
    "claim(uint256)": "379607f5",
    "creatorAddress()": "e927fc5c",
    "creatorFeeWei()": "b9ae771b",
    "currentEntryPriceWei()": "a9c29d91",
    "currentHolderAddress()": "2492ef59",
    "currentRoundId()": "9cbe5efd",
    "currentRoundSponsorInfo()": "3b574ee2",
    "didHoldInRound(uint256,address)": "aed16138",
    "getSponsor()": "f1152677",
    "hasClaimedForRound(uint256,address)": "ba541cef",
    "hasPending()": "5236434c",
    "hasPlayedInRound(uint256,address)": "5b4e628b",
    "keeperRewardWei()": "2f9cb8f2",
    "participantsByRound(uint256,uint256)": "5708b4cf",
    "pendingAttempt()": "6accd0ab",
    "pendingTargetBlock()": "42a5bf3d",
    "potBalanceWei()": "b3115ba6",
    "priceIncreaseMultiplierBps()": "461caa3d",
    "roundIdToRoundInfo(uint256)": "d4c8a82a",
    "settle()": "11da60b4",
    "sponsorPot(string)": "150a54be",
    "sponsorReservedWei()": "99de4a22",
    "take()": "159090bd",
    "totalReservedForClaimsWei()": "5876aeec",
    "uniqueHoldersCountInRound(uint256)": "91c07823",
    "updateCreatorAddress(address)": "316b9641"
  },
  "id": 21
}