{
  "abi": [
    {
      "inputs": [
        {
          "internalType": "uint256",
          "name": "baseEntryPriceWei_",
          "type": "uint256"
        },
        {
          "internalType": "uint256",
          "name": "priceIncreaseMultiplierBps_",
          "type": "uint256"
        },
        {
          "internalType": "address",
          "name": "creatorAddress_",
          "type": "address"
        }
      ],
      "stateMutability": "nonpayable",
      "type": "constructor"
    },
    {
      "inputs": [],
      "name": "AlreadyClaimed",
      "type": "error"
    },
    {
      "inputs": [
        {
          "internalType": "uint256",
          "name": "roundId",
          "type": "uint256"
        }
      ],
      "name": "AlreadyPlayedThisRound",
      "type": "error"
    },
    {
      "inputs": [
        {
          "internalType": "uint256",
          "name": "providedAmountWei",
          "type": "uint256"
        },
        {
          "internalType": "uint256",
          "name": "expectedAmountWeiOrMinWei",
          "type": "uint256"
        }
      ],
      "name": "InvalidAmount",
      "type": "error"
    },
    {
      "inputs": [],
      "name": "MaxParticipantsReached",
      "type": "error"
    },
    {
      "inputs": [],
      "name": "NoPendingAttempt",
      "type": "error"
    },
    {
      "inputs": [],
      "name": "NotEligibleForRound",
      "type": "error"
    },
    {
      "inputs": [],
      "name": "NothingToClaim",
      "type": "error"
    },
    {
      "inputs": [],
      "name": "PendingAttemptExists",
      "type": "error"
    },
    {
      "inputs": [],
      "name": "StaleBlockhash",
      "type": "error"
    },
    {
      "inputs": [],
      "name": "TooSoonToSettle",
      "type": "error"
    },
    {
      "anonymous": false,
      "inputs": [
        {
          "indexed": true,
          "internalType": "address",
          "name": "player",
          "type": "address"
        },
        {
          "indexed": true,
          "internalType": "uint256",
          "name": "roundId",
          "type": "uint256"
        },
        {
          "indexed": false,
          "internalType": "uint256",
          "name": "amount",
          "type": "uint256"
        }
      ],
      "name": "Claim",
      "type": "event"
    },
    {
      "anonymous": false,
      "inputs": [
        {
          "indexed": true,
          "internalType": "address",
          "name": "holder",
          "type": "address"
        },
        {
          "indexed": false,
          "internalType": "uint256",
          "name": "roundId",
          "type": "uint256"
        },
        {
          "indexed": false,
          "internalType": "uint256",
          "name": "newPrice",
          "type": "uint256"
        }
      ],
      "name": "NewHolder",
      "type": "event"
    },
    {
      "anonymous": false,
      "inputs": [
        {
          "indexed": false,
          "internalType": "uint256",
          "name": "newPot",
          "type": "uint256"
        }
      ],
      "name": "PotUpdated",
      "type": "event"
    },
    {
      "anonymous": false,
      "inputs": [
        {
          "indexed": true,
          "internalType": "uint256",
          "name": "roundId",
          "type": "uint256"
        },
        {
          "indexed": false,
          "internalType": "uint256",
          "name": "payoutAmount",
          "type": "uint256"
        },
        {
          "indexed": false,
          "internalType": "uint256",
          "name": "numEligible",
          "type": "uint256"
        },
        {
          "indexed": false,
          "internalType": "uint256",
          "name": "potAfter",
          "type": "uint256"
        }
      ],
      "name": "RoundEnded",
      "type": "event"
    },
    {
      "anonymous": false,
      "inputs": [
        {
          "indexed": true,
          "internalType": "address",
          "name": "player",
          "type": "address"
        },
        {
          "indexed": false,
          "internalType": "bool",
          "name": "win",
          "type": "bool"
        },
        {
          "indexed": false,
          "internalType": "uint256",
          "name": "randomness",
          "type": "uint256"
        },
        {
          "indexed": false,
          "internalType": "uint256",
          "name": "roundId",
          "type": "uint256"
        }
      ],
      "name": "Settle",
      "type": "event"
    },
    {
      "anonymous": false,
      "inputs": [
        {
          "indexed": true,
          "internalType": "uint256",
          "name": "roundId",
          "type": "uint256"
        }
      ],
      "name": "SponsorCleared",
      "type": "event"
    },
    {
      "anonymous": false,
      "inputs": [
        {
          "indexed": true,
          "internalType": "address",
          "name": "previousSponsor",
          "type": "address"
        },
        {
          "indexed": false,
          "internalType": "uint256",
          "name": "refundAmount",
          "type": "uint256"
        },
        {
          "indexed": false,
          "internalType": "uint256",
          "name": "roundId",
          "type": "uint256"
        }
      ],
      "name": "SponsorReplaced",
      "type": "event"
    },
    {
      "anonymous": false,
      "inputs": [
        {
          "indexed": true,
          "internalType": "address",
          "name": "sponsor",
          "type": "address"
        },
        {
          "indexed": false,
          "internalType": "uint256",
          "name": "amount",
          "type": "uint256"
        },
        {
          "indexed": false,
          "internalType": "string",
          "name": "message",
          "type": "string"
        },
        {
          "indexed": false,
          "internalType": "uint256",
          "name": "roundId",
          "type": "uint256"
        }
      ],
      "name": "SponsorUpdated",
      "type": "event"
    },
    {
      "anonymous": false,
      "inputs": [
        {
          "indexed": true,
          "internalType": "address",
          "name": "player",
          "type": "address"
        },
        {
          "indexed": false,
          "internalType": "uint256",
          "name": "pricePaid",
          "type": "uint256"
        },
        {
          "indexed": false,
          "internalType": "uint256",
          "name": "targetBlock",
          "type": "uint256"
        },
        {
          "indexed": false,
          "internalType": "uint256",
          "name": "roundId",
          "type": "uint256"
        }
      ],
      "name": "Take",
      "type": "event"
    },
    {
      "stateMutability": "payable",
      "type": "fallback"
    },
    {
      "inputs": [],
      "name": "availablePot",
      "outputs": [
        {
          "internalType": "uint256",
          "name": "",
          "type": "uint256"
        }
      ],
      "stateMutability": "view",
      "type": "function"
    },
    {
      "inputs": [],
      "name": "baseEntryPriceWei",
      "outputs": [
        {
          "internalType": "uint256",
          "name": "",
          "type": "uint256"
        }
      ],
      "stateMutability": "view",
      "type": "function"
    },
    {
      "inputs": [
        {
          "internalType": "uint256",
          "name": "roundId",
          "type": "uint256"
        }
      ],
      "name": "claim",
      "outputs": [],
      "stateMutability": "nonpayable",
      "type": "function"
    },
    {
      "inputs": [],
      "name": "creatorAddress",
      "outputs": [
        {
          "internalType": "address",
          "name": "",
          "type": "address"
        }
      ],
      "stateMutability": "view",
      "type": "function"
    },
    {
      "inputs": [],
      "name": "currentEntryPriceWei",
      "outputs": [
        {
          "internalType": "uint256",
          "name": "",
          "type": "uint256"
        }
      ],
      "stateMutability": "view",
      "type": "function"
    },
    {
      "inputs": [],
      "name": "currentHolderAddress",
      "outputs": [
        {
          "internalType": "address",
          "name": "",
          "type": "address"
        }
      ],
      "stateMutability": "view",
      "type": "function"
    },
    {
      "inputs": [],
      "name": "currentRoundId",
      "outputs": [
        {
          "internalType": "uint256",
          "name": "",
          "type": "uint256"
        }
      ],
      "stateMutability": "view",
      "type": "function"
    },
    {
      "inputs": [],
      "name": "currentRoundSponsorInfo",
      "outputs": [
        {
          "internalType": "address",
          "name": "sponsorAddress",
          "type": "address"
        },
        {
          "internalType": "uint256",
          "name": "sponsoredAmountWei",
          "type": "uint256"
        },
        {
          "internalType": "string",
          "name": "sponsorMessage",
          "type": "string"
        }
      ],
      "stateMutability": "view",
      "type": "function"
    },
    {
      "inputs": [
        {
          "internalType": "uint256",
          "name": "",
          "type": "uint256"
        },
        {
          "internalType": "address",
          "name": "",
          "type": "address"
        }
      ],
      "name": "didHoldInRound",
      "outputs": [
        {
          "internalType": "bool",
          "name": "",
          "type": "bool"
        }
      ],
      "stateMutability": "view",
      "type": "function"
    },
    {
      "inputs": [],
      "name": "getSponsor",
      "outputs": [
        {
          "internalType": "address",
          "name": "sponsor",
          "type": "address"
        },
        {
          "internalType": "uint256",
          "name": "amount",
          "type": "uint256"
        },
        {
          "internalType": "string",
          "name": "message",
          "type": "string"
        }
      ],
      "stateMutability": "view",
      "type": "function"
    },
    {
      "inputs": [
        {
          "internalType": "uint256",
          "name": "",
          "type": "uint256"
        },
        {
          "internalType": "address",
          "name": "",
          "type": "address"
        }
      ],
      "name": "hasClaimedForRound",
      "outputs": [
        {
          "internalType": "bool",
          "name": "",
          "type": "bool"
        }
      ],
      "stateMutability": "view",
      "type": "function"
    },
    {
      "inputs": [],
      "name": "hasPending",
      "outputs": [
        {
          "internalType": "bool",
          "name": "",
          "type": "bool"
        }
      ],
      "stateMutability": "view",
      "type": "function"
    },
    {
      "inputs": [
        {
          "internalType": "uint256",
          "name": "",
          "type": "uint256"
        },
        {
          "internalType": "address",
          "name": "",
          "type": "address"
        }
      ],
      "name": "hasPlayedInRound",
      "outputs": [
        {
          "internalType": "bool",
          "name": "",
          "type": "bool"
        }
      ],
      "stateMutability": "view",
      "type": "function"
    },
    {
      "inputs": [
        {
          "internalType": "uint256",
          "name": "",
          "type": "uint256"
        },
        {
          "internalType": "uint256",
          "name": "",
          "type": "uint256"
        }
      ],
      "name": "participantsByRound",
      "outputs": [
        {
          "internalType": "address",
          "name": "",
          "type": "address"
        }
      ],
      "stateMutability": "view",
      "type": "function"
    },
    {
      "inputs": [],
      "name": "pendingAttempt",
      "outputs": [
        {
          "internalType": "address",
          "name": "playerAddress",
          "type": "address"
        },
        {
          "internalType": "uint256",
          "name": "amountPaidWei",
          "type": "uint256"
        },
        {
          "internalType": "uint256",
          "name": "settlementTargetBlockNumber",
          "type": "uint256"
        },
        {
          "internalType": "uint256",
          "name": "createdInRoundId",
          "type": "uint256"
        },
        {
          "internalType": "bool",
          "name": "exists",
          "type": "bool"
        }
      ],
      "stateMutability": "view",
      "type": "function"
    },
    {
      "inputs": [],
      "name": "pendingTargetBlock",
      "outputs": [
        {
          "internalType": "uint256",
          "name": "",
          "type": "uint256"
        }
      ],
      "stateMutability": "view",
      "type": "function"
    },
    {
      "inputs": [],
      "name": "potBalanceWei",
      "outputs": [
        {
          "internalType": "uint256",
          "name": "",
          "type": "uint256"
        }
      ],
      "stateMutability": "view",
      "type": "function"
    },
    {
      "inputs": [],
      "name": "priceIncreaseMultiplierBps",
      "outputs": [
        {
          "internalType": "uint256",
          "name": "",
          "type": "uint256"
        }
      ],
      "stateMutability": "view",
      "type": "function"
    },
    {
      "inputs": [
        {
          "internalType": "uint256",
          "name": "",
          "type": "uint256"
        }
      ],
      "name": "roundIdToRoundInfo",
      "outputs": [
        {
          "internalType": "uint256",
          "name": "totalPayoutAmountWei",
          "type": "uint256"
        },
        {
          "internalType": "uint256",
          "name": "totalNumEligibleHolders",
          "type": "uint256"
        },
        {
          "internalType": "bool",
          "name": "isFinalized",
          "type": "bool"
        }
      ],
      "stateMutability": "view",
      "type": "function"
    },
    {
      "inputs": [],
      "name": "settle",
      "outputs": [],
      "stateMutability": "nonpayable",
      "type": "function"
    },
    {
      "inputs": [
        {
          "internalType": "string",
          "name": "message_",
          "type": "string"
        }
      ],
      "name": "sponsorPot",
      "outputs": [],
      "stateMutability": "payable",
      "type": "function"
    },
    {
      "inputs": [],
      "name": "sponsorReservedWei",
      "outputs": [
        {
          "internalType": "uint256",
          "name": "",
          "type": "uint256"
        }
      ],
      "stateMutability": "view",
      "type": "function"
    },
    {
      "inputs": [],
      "name": "take",
      "outputs": [],
      "stateMutability": "payable",
      "type": "function"
    },
    {
      "inputs": [],
      "name": "totalReservedForClaimsWei",
      "outputs": [
        {
          "internalType": "uint256",
          "name": "",
          "type": "uint256"
        }
      ],
      "stateMutability": "view",
      "type": "function"
    },
    {
      "inputs": [
        {
          "internalType": "uint256",
          "name": "",
          "type": "uint256"
        }
      ],
      "name": "uniqueHoldersCountInRound",
      "outputs": [
        {
          "internalType": "uint256",
          "name": "",
          "type": "uint256"
        }
      ],
      "stateMutability": "view",
      "type": "function"
    },
    {
      "inputs": [
        {
          "internalType": "address",
          "name": "newCreatorAddress",
          "type": "address"
        }
      ],
      "name": "updateCreatorAddress",
      "outputs": [],
      "stateMutability": "nonpayable",
      "type": "function"
    },
    {
      "stateMutability": "payable",
      "type": "receive"
    }
  ],
  "bytecode": {
    "object": "0x60c060405260016014553480156200001657600080fd5b50604051620029193803806200291983398101604081905262000039916200014b565b670de0b6b3a7640000831015620000885760405162461bcd60e51b815260206004820152600e60248201526d0c4c2e6caa0e4d2c6ca78628aa8960931b60448201526064015b60405180910390fd5b612710821015620000cc5760405162461bcd60e51b815260206004820152600d60248201526c0daead8e8d2e0d8d2cae47862f609b1b60448201526064016200007f565b6001600160a01b038116620001105760405162461bcd60e51b8152602060048201526009602482015268063726561746f723d360bc1b60448201526064016200007f565b608083905260a0919091526000919091556001600255601580546001600160a01b0319166001600160a01b0390921691909117905562000193565b6000806000606084860312156200016157600080fd5b83516020850151604086015191945092506001600160a01b03811681146200018857600080fd5b809150509250925092565b60805160a051612752620001c7600039600081816103610152611c3f01526000818161021d015261215801526127526000f3fe6080604052600436106101a55760003560e01c80635b4e628b116100e1578063aed161381161008a578063d4c8a82a11610064578063d4c8a82a14610594578063e04efec4146105f0578063e927fc5c14610605578063f115267714610632576101f9565b8063aed1613814610508578063b3115ba614610543578063ba541cef14610559576101f9565b806399de4a22116100bb57806399de4a22146104c65780639cbe5efd146104dc578063a9c29d91146104f2576101f9565b80635b4e628b146103dd5780636accd0ab1461041857806391c0782314610499576101f9565b8063379607f51161014e578063461caa3d11610128578063461caa3d1461034f5780635236434c146103835780635708b4cf146103a75780635876aeec146103c7576101f9565b8063379607f5146102f65780633b574ee21461031657806342a5bf3d1461033a576101f9565b8063159090bd1161017f578063159090bd1461027c5780632492ef5914610284578063316b9641146102d6576101f9565b80630561d1d21461020b57806311da60b414610252578063150a54be14610269576101f9565b366101f95734600360008282546101bc9190612234565b90915550506003546040519081527f2ba2169cd2502a6cc4fd55f87f2dcbceef588b593aa4fdc883d4fc62e65ed6a99060200160405180910390a1005b34600360008282546101bc9190612234565b34801561021757600080fd5b5061023f7f000000000000000000000000000000000000000000000000000000000000000081565b6040519081526020015b60405180910390f35b34801561025e57600080fd5b50610267610647565b005b61026761027736600461224d565b610a67565b6102676110ba565b34801561029057600080fd5b506001546102b19073ffffffffffffffffffffffffffffffffffffffff1681565b60405173ffffffffffffffffffffffffffffffffffffffff9091168152602001610249565b3480156102e257600080fd5b506102676102f13660046122e8565b61143b565b34801561030257600080fd5b5061026761031136600461230a565b611580565b34801561032257600080fd5b5061032b611925565b60405161024993929190612323565b34801561034657600080fd5b5060075461023f565b34801561035b57600080fd5b5061023f7f000000000000000000000000000000000000000000000000000000000000000081565b34801561038f57600080fd5b5060095460ff165b6040519015158152602001610249565b3480156103b357600080fd5b506102b16103c23660046123b4565b6119d7565b3480156103d357600080fd5b5061023f60045481565b3480156103e957600080fd5b506103976103f83660046123d6565b600c60209081526000928352604080842090915290825290205460ff1681565b34801561042457600080fd5b506005546006546007546008546009546104589473ffffffffffffffffffffffffffffffffffffffff169392919060ff1685565b6040805173ffffffffffffffffffffffffffffffffffffffff909616865260208601949094529284019190915260608301521515608082015260a001610249565b3480156104a557600080fd5b5061023f6104b436600461230a565b600b6020526000908152604090205481565b3480156104d257600080fd5b5061023f60135481565b3480156104e857600080fd5b5061023f60025481565b3480156104fe57600080fd5b5061023f60005481565b34801561051457600080fd5b506103976105233660046123d6565b600a60209081526000928352604080842090915290825290205460ff1681565b34801561054f57600080fd5b5061023f60035481565b34801561056557600080fd5b506103976105743660046123d6565b600f60209081526000928352604080842090915290825290205460ff1681565b3480156105a057600080fd5b506105d36105af36600461230a565b600e6020526000908152604090208054600182015460029092015490919060ff1683565b604080519384526020840192909252151590820152606001610249565b3480156105fc57600080fd5b5061023f611a1c565b34801561061157600080fd5b506015546102b19073ffffffffffffffffffffffffffffffffffffffff1681565b34801561063e57600080fd5b5061032b611a2b565b6002601454036106b8576040517f08c379a000000000000000000000000000000000000000000000000000000000815260206004820152600a60248201527f5245454e5452414e43590000000000000000000000000000000000000000000060448201526064015b60405180910390fd5b60026014556040805160a08101825260055473ffffffffffffffffffffffffffffffffffffffff168152600654602082015260075491810191909152600854606082015260095460ff16151560808201819052610741576040517fdefc4c3400000000000000000000000000000000000000000000000000000000815260040160405180910390fd5b806040015143101561077f576040517ffe8e911400000000000000000000000000000000000000000000000000000000815260040160405180910390fd5b604081015140806107bc576040517f1e41751d00000000000000000000000000000000000000000000000000000000815260040160405180910390fd5b66470de4df82000060006107ce611b13565b90506000818311156107e057816107e2565b825b905080156108b55780600360008282546107fc9190612402565b9091555050604051600090339083908381818185875af1925050503d8060008114610843576040519150601f19603f3d011682016040523d82523d6000602084013e610848565b606091505b50509050806108b3576040517f08c379a000000000000000000000000000000000000000000000000000000000815260206004820152601160248201527f6b656570657220706179206661696c656400000000000000000000000000000060448201526064016106af565b505b50508251606080850151604080516020810187905273ffffffffffffffffffffffffffffffffffffffff9094169084015290820152600090608001604080517fffffffffffffffffffffffffffffffffffffffffffffffffffffffffffffffe081840301815291815281516020928301206002546000908152600d909352908220549092506032116109495750600061095a565b6008610956600a84612444565b1090505b600580547fffffffffffffffffffffffff0000000000000000000000000000000000000000169055600060068190556007819055600855600980547fffffffffffffffffffffffffffffffffffffffffffffffffffffffffffffff0016905580156109f05784516109ca90611b3c565b6002546000908152600d60205260409020546032116109eb576109eb611cfd565b6109f8565b6109f8611cfd565b8451606080870151604080518515158152602081018790529081019190915273ffffffffffffffffffffffffffffffffffffffff909216917f70269c4de1853bd69b10c1bd439721e36732825ce14e2fbc5213febaacaaf9af910160405180910390a250506001601455505050565b600260145403610ad3576040517f08c379a000000000000000000000000000000000000000000000000000000000815260206004820152600a60248201527f5245454e5452414e43590000000000000000000000000000000000000000000060448201526064016106af565b6002601455670de0b6b3a7640000341015610b2a576040517f7c83fcf0000000000000000000000000000000000000000000000000000000008152346004820152670de0b6b3a764000060248201526044016106af565b604080516060810182526010805473ffffffffffffffffffffffffffffffffffffffff16825260115460208301526012805460009484019190610b6c90612458565b80601f0160208091040260200160405190810160405280929190818152602001828054610b9890612458565b8015610be55780601f10610bba57610100808354040283529160200191610be5565b820191906000526020600020905b815481529060010190602001808311610bc857829003601f168201915b50505091909252505081519192505073ffffffffffffffffffffffffffffffffffffffff16610d85573460036000828254610c209190612234565b925050819055503460136000828254610c399190612234565b9250508190555060405180606001604052803373ffffffffffffffffffffffffffffffffffffffff16815260200134815260200184848080601f01602080910402602001604051908101604052809392919081815260200183838082843760009201919091525050509152508051601080547fffffffffffffffffffffffff00000000000000000000000000000000000000001673ffffffffffffffffffffffffffffffffffffffff90921691909117815560208201516011556040820151601290610d059082612529565b50506003546040519081527f2ba2169cd2502a6cc4fd55f87f2dcbceef588b593aa4fdc883d4fc62e65ed6a9915060200160405180910390a160025460405133917fbcd59d41754af57ee9503b878894bf5fdadb31acb76cb009eacf72ea6ad0822a91610d7791349188918891612643565b60405180910390a2506110b1565b6000610d9a8260200151612ee061271061217e565b905080341015610ddf576040517f7c83fcf0000000000000000000000000000000000000000000000000000000008152346004820152602481018290526044016106af565b3460036000828254610df19190612234565b925050819055503460136000828254610e0a9190612234565b90915550506003546040519081527f2ba2169cd2502a6cc4fd55f87f2dcbceef588b593aa4fdc883d4fc62e65ed6a99060200160405180910390a1816020015160136000828254610e5b9190612402565b9091555050602082015160038054600090610e77908490612402565b90915550508151602083015160405160009273ffffffffffffffffffffffffffffffffffffffff1691908381818185875af1925050503d8060008114610ed9576040519150601f19603f3d011682016040523d82523d6000602084013e610ede565b606091505b5050905080610f49576040517f08c379a000000000000000000000000000000000000000000000000000000000815260206004820152601560248201527f73706f6e736f7220726566756e64206661696c6564000000000000000000000060448201526064016106af565b8251602080850151600254604080519283529282015273ffffffffffffffffffffffffffffffffffffffff909216917f93d8bd2b89791caf148e673fa7f739059c13c17f8c3bfc937f953be7257e8110910160405180910390a260405180606001604052803373ffffffffffffffffffffffffffffffffffffffff16815260200134815260200186868080601f01602080910402602001604051908101604052809392919081815260200183838082843760009201919091525050509152508051601080547fffffffffffffffffffffffff00000000000000000000000000000000000000001673ffffffffffffffffffffffffffffffffffffffff909216919091178155602082015160115560408201516012906110689082612529565b50506002546040513392507fbcd59d41754af57ee9503b878894bf5fdadb31acb76cb009eacf72ea6ad0822a916110a59134918a918a9190612643565b60405180910390a25050505b50506001601455565b600260145403611126576040517f08c379a000000000000000000000000000000000000000000000000000000000815260206004820152600a60248201527f5245454e5452414e43590000000000000000000000000000000000000000000060448201526064016106af565b600260145560095460ff1615611168576040517f3eed9ae900000000000000000000000000000000000000000000000000000000815260040160405180910390fd5b6002546000908152600d6020526040902054603281106111b4576040517f6c8c8d2100000000000000000000000000000000000000000000000000000000815260040160405180910390fd5b603181146000816111c7576000546111ca565b60005b905080341461120e576040517f7c83fcf0000000000000000000000000000000000000000000000000000000008152346004820152602481018290526044016106af565b6002546000908152600c6020908152604080832033845290915290205460ff161561126b576002546040517f666ad0c70000000000000000000000000000000000000000000000000000000081526004016106af91815260200190565b600280546000908152600c602090815260408083203380855290835281842080547fffffffffffffffffffffffffffffffffffffffffffffffffffffffffffffff0016600190811790915594548452600d8352908320805494850181558352912090910180547fffffffffffffffffffffffff0000000000000000000000000000000000000000169091179055341561134c5734600360008282546113109190612234565b90915550506003546040519081527f2ba2169cd2502a6cc4fd55f87f2dcbceef588b593aa4fdc883d4fc62e65ed6a99060200160405180910390a15b6000611359436001612234565b6040805160a08101825233808252346020808401829052838501869052600254606080860182905260016080909601869052600580547fffffffffffffffffffffffff00000000000000000000000000000000000000001686179055600684905560078890556008829055600980547fffffffffffffffffffffffffffffffffffffffffffffffffffffffffffffff00169096179095558551928352908201869052938101939093529293507f6c5dd09f0a96a53c958d8e8898a12d877ec2853d8e61f9cb45c0c36adaf900c9910160405180910390a2505060016014555050565b60155473ffffffffffffffffffffffffffffffffffffffff1633146114bc576040517f08c379a000000000000000000000000000000000000000000000000000000000815260206004820152600b60248201527f6e6f742d63726561746f7200000000000000000000000000000000000000000060448201526064016106af565b73ffffffffffffffffffffffffffffffffffffffff8116611539576040517f08c379a000000000000000000000000000000000000000000000000000000000815260206004820152600960248201527f63726561746f723d30000000000000000000000000000000000000000000000060448201526064016106af565b601580547fffffffffffffffffffffffff00000000000000000000000000000000000000001673ffffffffffffffffffffffffffffffffffffffff92909216919091179055565b6002601454036115ec576040517f08c379a000000000000000000000000000000000000000000000000000000000815260206004820152600a60248201527f5245454e5452414e43590000000000000000000000000000000000000000000060448201526064016106af565b600260148190556000828152600e60209081526040918290208251606081018452815481526001820154928101929092529092015460ff161515908201819052611662576040517f969bf72800000000000000000000000000000000000000000000000000000000815260040160405180910390fd5b6000828152600a6020908152604080832033845290915290205460ff166116b5576040517f622aebc300000000000000000000000000000000000000000000000000000000815260040160405180910390fd5b6000828152600f6020908152604080832033845290915290205460ff1615611709576040517f646cf55800000000000000000000000000000000000000000000000000000000815260040160405180910390fd5b6000816020015160001461172d576020820151825161172891906126a1565b611730565b60005b90508060000361176c576040517f969bf72800000000000000000000000000000000000000000000000000000000815260040160405180910390fd5b6000838152600f60209081526040808320338452909152902080547fffffffffffffffffffffffffffffffffffffffffffffffffffffffffffffff0016600117905560045481111561181a576040517f08c379a000000000000000000000000000000000000000000000000000000000815260206004820152601160248201527f7265736572766520756e646572666c6f7700000000000000000000000000000060448201526064016106af565b806004600082825461182c9190612402565b9091555050604051600090339083908381818185875af1925050503d8060008114611873576040519150601f19603f3d011682016040523d82523d6000602084013e611878565b606091505b50509050806118e3576040517f08c379a000000000000000000000000000000000000000000000000000000000815260206004820152601560248201527f636c61696d207472616e73666572206661696c6564000000000000000000000060448201526064016106af565b604051828152849033907f34fcbac0073d7c3d388e51312faf357774904998eeb8fca628b9e6f65ee1cbf79060200160405180910390a3505060016014555050565b601080546011546012805473ffffffffffffffffffffffffffffffffffffffff90931693919261195490612458565b80601f016020809104026020016040519081016040528092919081815260200182805461198090612458565b80156119cd5780601f106119a2576101008083540402835291602001916119cd565b820191906000526020600020905b8154815290600101906020018083116119b057829003601f168201915b5050505050905083565b600d60205281600052604060002081815481106119f357600080fd5b60009182526020909120015473ffffffffffffffffffffffffffffffffffffffff169150829050565b6000611a26611b13565b905090565b60408051606081810183526010805473ffffffffffffffffffffffffffffffffffffffff168352601154602084015260128054600095869586949093909291840191611a7690612458565b80601f0160208091040260200160405190810160405280929190818152602001828054611aa290612458565b8015611aef5780601f10611ac457610100808354040283529160200191611aef565b820191906000526020600020905b815481529060010190602001808311611ad257829003601f168201915b50505091909252505081516020830151604090930151909792965094509092505050565b60035460135460009190808211611b2b576000611b35565b611b358183612402565b9250505090565b6002546000908152600a6020908152604080832073ffffffffffffffffffffffffffffffffffffffff8516845290915290205460ff16611bf657600280546000908152600a6020908152604080832073ffffffffffffffffffffffffffffffffffffffff86168452825280832080547fffffffffffffffffffffffffffffffffffffffffffffffffffffffffffffff0016600190811790915593548352600b90915281208054909190611bf0908490612234565b90915550505b600180547fffffffffffffffffffffffff00000000000000000000000000000000000000001673ffffffffffffffffffffffffffffffffffffffff8316179055600054611c66907f000000000000000000000000000000000000000000000000000000000000000061271061217e565b600081905560025460408051918252602082019290925273ffffffffffffffffffffffffffffffffffffffff8316917e40870511fcd025e35c10818502bec08721e7745dbed12dc9d96f6427581411910160405180910390a27f2ba2169cd2502a6cc4fd55f87f2dcbceef588b593aa4fdc883d4fc62e65ed6a9600354604051611cf291815260200190565b60405180910390a150565b6000611d07611b13565b905060008167016345785d8a00001115611d215781611d2b565b67016345785d8a00005b90508015611e16578060036000828254611d459190612402565b909155505060155460405160009173ffffffffffffffffffffffffffffffffffffffff169083908381818185875af1925050503d8060008114611da4576040519150601f19603f3d011682016040523d82523d6000602084013e611da9565b606091505b5050905080611e14576040517f08c379a000000000000000000000000000000000000000000000000000000000815260206004820152601260248201527f63726561746f7220706179206661696c6564000000000000000000000000000060448201526064016106af565b505b6002546000908152600d6020526040812054908115611f8e576000611e39611b13565b91508190508015611f8c578160036000828254611e569190612402565b9091555060009050611e6884846126a1565b90508015611f8a576002546000908152600d60205260408120805490915b81811015611f86576000838281548110611ea257611ea26126b5565b600091825260208220015460405173ffffffffffffffffffffffffffffffffffffffff9091169187919081818185875af1925050503d8060008114611f03576040519150601f19603f3d011682016040523d82523d6000602084013e611f08565b606091505b5050905080611f73576040517f08c379a000000000000000000000000000000000000000000000000000000000815260206004820152601660248201527f7061727469636970616e7420706179206661696c65640000000000000000000060448201526064016106af565b5080611f7e816126e4565b915050611e86565b5050505b505b505b604080516060808201835283825260208083018681526001848601818152600280546000908152600e8652889020965187559251918601919091555193810180547fffffffffffffffffffffffffffffffffffffffffffffffffffffffffffffff00169415159490941790935591546003548451868152938401879052938301939093527fff9d41e1547acb5eda1e3bac0c795f57760c96016cdd641af6bdd90270a768f3910160405180910390a27f2ba2169cd2502a6cc4fd55f87f2dcbceef588b593aa4fdc883d4fc62e65ed6a960035460405161207091815260200190565b60405180910390a1600060135411806120a0575060105473ffffffffffffffffffffffffffffffffffffffff1615155b156121145760006013819055601080547fffffffffffffffffffffffff00000000000000000000000000000000000000001681556011829055906120e56012826121af565b50506002546040517f2aceb5e6de828c86a2adae4aee75a748979d2e1108b075412b068d8764aaa99090600090a25b6001600260008282546121279190612234565b9091555050600180547fffffffffffffffffffffffff000000000000000000000000000000000000000016905550507f00000000000000000000000000000000000000000000000000000000000000006000555050565b600083830280156121a357826001848301038161219d5761219d612415565b046121a6565b60005b95945050505050565b5080546121bb90612458565b6000825580601f106121cb575050565b601f0160209004906000526020600020908101906121e991906121ec565b50565b5b8082111561220157600081556001016121ed565b5090565b7f4e487b7100000000000000000000000000000000000000000000000000000000600052601160045260246000fd5b8082018082111561224757612247612205565b92915050565b6000806020838503121561226057600080fd5b823567ffffffffffffffff8082111561227857600080fd5b818501915085601f83011261228c57600080fd5b81358181111561229b57600080fd5b8660208285010111156122ad57600080fd5b60209290920196919550909350505050565b803573ffffffffffffffffffffffffffffffffffffffff811681146122e357600080fd5b919050565b6000602082840312156122fa57600080fd5b612303826122bf565b9392505050565b60006020828403121561231c57600080fd5b5035919050565b73ffffffffffffffffffffffffffffffffffffffff8416815260006020848184015260606040840152835180606085015260005b8181101561237357858101830151858201608001528201612357565b5060006080828601015260807fffffffffffffffffffffffffffffffffffffffffffffffffffffffffffffffe0601f83011685010192505050949350505050565b600080604083850312156123c757600080fd5b50508035926020909101359150565b600080604083850312156123e957600080fd5b823591506123f9602084016122bf565b90509250929050565b8181038181111561224757612247612205565b7f4e487b7100000000000000000000000000000000000000000000000000000000600052601260045260246000fd5b60008261245357612453612415565b500690565b600181811c9082168061246c57607f821691505b6020821081036124a5577f4e487b7100000000000000000000000000000000000000000000000000000000600052602260045260246000fd5b50919050565b7f4e487b7100000000000000000000000000000000000000000000000000000000600052604160045260246000fd5b601f82111561252457600081815260208120601f850160051c810160208610156125015750805b601f850160051c820191505b818110156125205782815560010161250d565b5050505b505050565b815167ffffffffffffffff811115612543576125436124ab565b612557816125518454612458565b846124da565b602080601f8311600181146125aa57600084156125745750858301515b7fffffffffffffffffffffffffffffffffffffffffffffffffffffffffffffffff600386901b1c1916600185901b178555612520565b6000858152602081207fffffffffffffffffffffffffffffffffffffffffffffffffffffffffffffffe08616915b828110156125f7578886015182559484019460019091019084016125d8565b508582101561263357878501517fffffffffffffffffffffffffffffffffffffffffffffffffffffffffffffffff600388901b60f8161c191681555b5050505050600190811b01905550565b8481526060602082015282606082015282846080830137600060808483010152600060807fffffffffffffffffffffffffffffffffffffffffffffffffffffffffffffffe0601f860116830101905082604083015295945050505050565b6000826126b0576126b0612415565b500490565b7f4e487b7100000000000000000000000000000000000000000000000000000000600052603260045260246000fd5b60007fffffffffffffffffffffffffffffffffffffffffffffffffffffffffffffffff820361271557612715612205565b506001019056fea2646970667358221220b89d24fc89272314987a71cbdeba02787a4f8c833c736e4def967452511434d764736f6c63430008130033",
    "linkReferences": {}
  },
  "methodIdentifiers": {
    "availablePot()": "e04efec4",
    "baseEntryPriceWei()": "0561d1d2",
    "claim(uint256)": "379607f5",
    "creatorAddress()": "e927fc5c",
    "currentEntryPriceWei()": "a9c29d91",
    "currentHolderAddress()": "2492ef59",
    "currentRoundId()": "9cbe5efd",
    "currentRoundSponsorInfo()": "3b574ee2",
    "didHoldInRound(uint256,address)": "aed16138",
    "getSponsor()": "f1152677",
    "hasClaimedForRound(uint256,address)": "ba541cef",
    "hasPending()": "5236434c",
    "hasPlayedInRound(uint256,address)": "5b4e628b",
    "participantsByRound(uint256,uint256)": "5708b4cf",
    "pendingAttempt()": "6accd0ab",
    "pendingTargetBlock()": "42a5bf3d",
    "potBalanceWei()": "b3115ba6",
    "priceIncreaseMultiplierBps()": "461caa3d",
    "roundIdToRoundInfo(uint256)": "d4c8a82a",
    "settle()": "11da60b4",
    "sponsorPot(string)": "150a54be",
    "sponsorReservedWei()": "99de4a22",
    "take()": "159090bd",
    "totalReservedForClaimsWei()": "5876aeec",
    "uniqueHoldersCountInRound(uint256)": "91c07823",
    "updateCreatorAddress(address)": "316b9641"
  },
  "id": 21
}