{
  "abi": [
    {
      "inputs": [
        {
          "internalType": "uint256",
          "name": "baseEntryPriceWei_",
          "type": "uint256"
        },
        {
          "internalType": "uint256",
          "name": "priceIncreaseMultiplierBps_",
          "type": "uint256"
        },
        {
          "internalType": "uint256",
          "name": "roundLossPayoutPercentBps_",
          "type": "uint256"
        },
        {
          "internalType": "address",
          "name": "creatorAddress_",
          "type": "address"
        }
      ],
      "stateMutability": "nonpayable",
      "type": "constructor"
    },
    {
      "inputs": [],
      "name": "AlreadyClaimed",
      "type": "error"
    },
    {
      "inputs": [
        {
          "internalType": "uint256",
          "name": "roundId",
          "type": "uint256"
        }
      ],
      "name": "AlreadyPlayedThisRound",
      "type": "error"
    },
    {
      "inputs": [
        {
          "internalType": "uint256",
          "name": "providedAmountWei",
          "type": "uint256"
        },
        {
          "internalType": "uint256",
          "name": "expectedAmountWeiOrMinWei",
          "type": "uint256"
        }
      ],
      "name": "InvalidAmount",
      "type": "error"
    },
    {
      "inputs": [],
      "name": "MaxParticipantsReached",
      "type": "error"
    },
    {
      "inputs": [],
      "name": "NoPendingAttempt",
      "type": "error"
    },
    {
      "inputs": [],
      "name": "NotEligibleForRound",
      "type": "error"
    },
    {
      "inputs": [],
      "name": "NothingToClaim",
      "type": "error"
    },
    {
      "inputs": [],
      "name": "PendingAttemptExists",
      "type": "error"
    },
    {
      "inputs": [],
      "name": "StaleBlockhash",
      "type": "error"
    },
    {
      "inputs": [],
      "name": "TooSoonToSettle",
      "type": "error"
    },
    {
      "anonymous": false,
      "inputs": [
        {
          "indexed": true,
          "internalType": "address",
          "name": "player",
          "type": "address"
        },
        {
          "indexed": true,
          "internalType": "uint256",
          "name": "roundId",
          "type": "uint256"
        },
        {
          "indexed": false,
          "internalType": "uint256",
          "name": "amount",
          "type": "uint256"
        }
      ],
      "name": "Claim",
      "type": "event"
    },
    {
      "anonymous": false,
      "inputs": [
        {
          "indexed": true,
          "internalType": "address",
          "name": "holder",
          "type": "address"
        },
        {
          "indexed": false,
          "internalType": "uint256",
          "name": "roundId",
          "type": "uint256"
        },
        {
          "indexed": false,
          "internalType": "uint256",
          "name": "newPrice",
          "type": "uint256"
        }
      ],
      "name": "NewHolder",
      "type": "event"
    },
    {
      "anonymous": false,
      "inputs": [
        {
          "indexed": false,
          "internalType": "uint256",
          "name": "newPot",
          "type": "uint256"
        }
      ],
      "name": "PotUpdated",
      "type": "event"
    },
    {
      "anonymous": false,
      "inputs": [
        {
          "indexed": true,
          "internalType": "uint256",
          "name": "roundId",
          "type": "uint256"
        },
        {
          "indexed": false,
          "internalType": "uint256",
          "name": "payoutAmount",
          "type": "uint256"
        },
        {
          "indexed": false,
          "internalType": "uint256",
          "name": "numEligible",
          "type": "uint256"
        },
        {
          "indexed": false,
          "internalType": "uint256",
          "name": "potAfter",
          "type": "uint256"
        }
      ],
      "name": "RoundEnded",
      "type": "event"
    },
    {
      "anonymous": false,
      "inputs": [
        {
          "indexed": true,
          "internalType": "address",
          "name": "player",
          "type": "address"
        },
        {
          "indexed": false,
          "internalType": "bool",
          "name": "win",
          "type": "bool"
        },
        {
          "indexed": false,
          "internalType": "uint256",
          "name": "randomness",
          "type": "uint256"
        },
        {
          "indexed": false,
          "internalType": "uint256",
          "name": "roundId",
          "type": "uint256"
        }
      ],
      "name": "Settle",
      "type": "event"
    },
    {
      "anonymous": false,
      "inputs": [
        {
          "indexed": true,
          "internalType": "uint256",
          "name": "roundId",
          "type": "uint256"
        }
      ],
      "name": "SponsorCleared",
      "type": "event"
    },
    {
      "anonymous": false,
      "inputs": [
        {
          "indexed": true,
          "internalType": "address",
          "name": "previousSponsor",
          "type": "address"
        },
        {
          "indexed": false,
          "internalType": "uint256",
          "name": "refundAmount",
          "type": "uint256"
        },
        {
          "indexed": false,
          "internalType": "uint256",
          "name": "roundId",
          "type": "uint256"
        }
      ],
      "name": "SponsorReplaced",
      "type": "event"
    },
    {
      "anonymous": false,
      "inputs": [
        {
          "indexed": true,
          "internalType": "address",
          "name": "sponsor",
          "type": "address"
        },
        {
          "indexed": false,
          "internalType": "uint256",
          "name": "amount",
          "type": "uint256"
        },
        {
          "indexed": false,
          "internalType": "string",
          "name": "message",
          "type": "string"
        },
        {
          "indexed": false,
          "internalType": "uint256",
          "name": "roundId",
          "type": "uint256"
        }
      ],
      "name": "SponsorUpdated",
      "type": "event"
    },
    {
      "anonymous": false,
      "inputs": [
        {
          "indexed": true,
          "internalType": "address",
          "name": "player",
          "type": "address"
        },
        {
          "indexed": false,
          "internalType": "uint256",
          "name": "pricePaid",
          "type": "uint256"
        },
        {
          "indexed": false,
          "internalType": "uint256",
          "name": "targetBlock",
          "type": "uint256"
        },
        {
          "indexed": false,
          "internalType": "uint256",
          "name": "roundId",
          "type": "uint256"
        }
      ],
      "name": "Take",
      "type": "event"
    },
    {
      "stateMutability": "payable",
      "type": "fallback"
    },
    {
      "inputs": [],
      "name": "availablePot",
      "outputs": [
        {
          "internalType": "uint256",
          "name": "",
          "type": "uint256"
        }
      ],
      "stateMutability": "view",
      "type": "function"
    },
    {
      "inputs": [],
      "name": "baseEntryPriceWei",
      "outputs": [
        {
          "internalType": "uint256",
          "name": "",
          "type": "uint256"
        }
      ],
      "stateMutability": "view",
      "type": "function"
    },
    {
      "inputs": [
        {
          "internalType": "uint256",
          "name": "roundId",
          "type": "uint256"
        }
      ],
      "name": "claim",
      "outputs": [],
      "stateMutability": "nonpayable",
      "type": "function"
    },
    {
      "inputs": [],
      "name": "creatorAddress",
      "outputs": [
        {
          "internalType": "address",
          "name": "",
          "type": "address"
        }
      ],
      "stateMutability": "view",
      "type": "function"
    },
    {
      "inputs": [],
      "name": "currentEntryPriceWei",
      "outputs": [
        {
          "internalType": "uint256",
          "name": "",
          "type": "uint256"
        }
      ],
      "stateMutability": "view",
      "type": "function"
    },
    {
      "inputs": [],
      "name": "currentHolderAddress",
      "outputs": [
        {
          "internalType": "address",
          "name": "",
          "type": "address"
        }
      ],
      "stateMutability": "view",
      "type": "function"
    },
    {
      "inputs": [],
      "name": "currentRoundId",
      "outputs": [
        {
          "internalType": "uint256",
          "name": "",
          "type": "uint256"
        }
      ],
      "stateMutability": "view",
      "type": "function"
    },
    {
      "inputs": [],
      "name": "currentRoundSponsorInfo",
      "outputs": [
        {
          "internalType": "address",
          "name": "sponsorAddress",
          "type": "address"
        },
        {
          "internalType": "uint256",
          "name": "sponsoredAmountWei",
          "type": "uint256"
        },
        {
          "internalType": "string",
          "name": "sponsorMessage",
          "type": "string"
        }
      ],
      "stateMutability": "view",
      "type": "function"
    },
    {
      "inputs": [
        {
          "internalType": "uint256",
          "name": "",
          "type": "uint256"
        },
        {
          "internalType": "address",
          "name": "",
          "type": "address"
        }
      ],
      "name": "didHoldInRound",
      "outputs": [
        {
          "internalType": "bool",
          "name": "",
          "type": "bool"
        }
      ],
      "stateMutability": "view",
      "type": "function"
    },
    {
      "inputs": [],
      "name": "getSponsor",
      "outputs": [
        {
          "internalType": "address",
          "name": "sponsor",
          "type": "address"
        },
        {
          "internalType": "uint256",
          "name": "amount",
          "type": "uint256"
        },
        {
          "internalType": "string",
          "name": "message",
          "type": "string"
        }
      ],
      "stateMutability": "view",
      "type": "function"
    },
    {
      "inputs": [
        {
          "internalType": "uint256",
          "name": "",
          "type": "uint256"
        },
        {
          "internalType": "address",
          "name": "",
          "type": "address"
        }
      ],
      "name": "hasClaimedForRound",
      "outputs": [
        {
          "internalType": "bool",
          "name": "",
          "type": "bool"
        }
      ],
      "stateMutability": "view",
      "type": "function"
    },
    {
      "inputs": [],
      "name": "hasPending",
      "outputs": [
        {
          "internalType": "bool",
          "name": "",
          "type": "bool"
        }
      ],
      "stateMutability": "view",
      "type": "function"
    },
    {
      "inputs": [
        {
          "internalType": "uint256",
          "name": "",
          "type": "uint256"
        },
        {
          "internalType": "address",
          "name": "",
          "type": "address"
        }
      ],
      "name": "hasPlayedInRound",
      "outputs": [
        {
          "internalType": "bool",
          "name": "",
          "type": "bool"
        }
      ],
      "stateMutability": "view",
      "type": "function"
    },
    {
      "inputs": [
        {
          "internalType": "uint256",
          "name": "",
          "type": "uint256"
        },
        {
          "internalType": "uint256",
          "name": "",
          "type": "uint256"
        }
      ],
      "name": "participantsByRound",
      "outputs": [
        {
          "internalType": "address",
          "name": "",
          "type": "address"
        }
      ],
      "stateMutability": "view",
      "type": "function"
    },
    {
      "inputs": [],
      "name": "pendingAttempt",
      "outputs": [
        {
          "internalType": "address",
          "name": "playerAddress",
          "type": "address"
        },
        {
          "internalType": "uint256",
          "name": "amountPaidWei",
          "type": "uint256"
        },
        {
          "internalType": "uint256",
          "name": "settlementTargetBlockNumber",
          "type": "uint256"
        },
        {
          "internalType": "uint256",
          "name": "createdInRoundId",
          "type": "uint256"
        },
        {
          "internalType": "bool",
          "name": "exists",
          "type": "bool"
        }
      ],
      "stateMutability": "view",
      "type": "function"
    },
    {
      "inputs": [],
      "name": "pendingTargetBlock",
      "outputs": [
        {
          "internalType": "uint256",
          "name": "",
          "type": "uint256"
        }
      ],
      "stateMutability": "view",
      "type": "function"
    },
    {
      "inputs": [],
      "name": "potBalanceWei",
      "outputs": [
        {
          "internalType": "uint256",
          "name": "",
          "type": "uint256"
        }
      ],
      "stateMutability": "view",
      "type": "function"
    },
    {
      "inputs": [],
      "name": "priceIncreaseMultiplierBps",
      "outputs": [
        {
          "internalType": "uint256",
          "name": "",
          "type": "uint256"
        }
      ],
      "stateMutability": "view",
      "type": "function"
    },
    {
      "inputs": [
        {
          "internalType": "uint256",
          "name": "",
          "type": "uint256"
        }
      ],
      "name": "roundIdToRoundInfo",
      "outputs": [
        {
          "internalType": "uint256",
          "name": "totalPayoutAmountWei",
          "type": "uint256"
        },
        {
          "internalType": "uint256",
          "name": "totalNumEligibleHolders",
          "type": "uint256"
        },
        {
          "internalType": "bool",
          "name": "isFinalized",
          "type": "bool"
        }
      ],
      "stateMutability": "view",
      "type": "function"
    },
    {
      "inputs": [],
      "name": "roundLossPayoutPercentBps",
      "outputs": [
        {
          "internalType": "uint256",
          "name": "",
          "type": "uint256"
        }
      ],
      "stateMutability": "view",
      "type": "function"
    },
    {
      "inputs": [],
      "name": "settle",
      "outputs": [],
      "stateMutability": "nonpayable",
      "type": "function"
    },
    {
      "inputs": [
        {
          "internalType": "string",
          "name": "message_",
          "type": "string"
        }
      ],
      "name": "sponsorPot",
      "outputs": [],
      "stateMutability": "payable",
      "type": "function"
    },
    {
      "inputs": [],
      "name": "sponsorReservedWei",
      "outputs": [
        {
          "internalType": "uint256",
          "name": "",
          "type": "uint256"
        }
      ],
      "stateMutability": "view",
      "type": "function"
    },
    {
      "inputs": [],
      "name": "take",
      "outputs": [],
      "stateMutability": "payable",
      "type": "function"
    },
    {
      "inputs": [],
      "name": "totalReservedForClaimsWei",
      "outputs": [
        {
          "internalType": "uint256",
          "name": "",
          "type": "uint256"
        }
      ],
      "stateMutability": "view",
      "type": "function"
    },
    {
      "inputs": [
        {
          "internalType": "uint256",
          "name": "",
          "type": "uint256"
        }
      ],
      "name": "uniqueHoldersCountInRound",
      "outputs": [
        {
          "internalType": "uint256",
          "name": "",
          "type": "uint256"
        }
      ],
      "stateMutability": "view",
      "type": "function"
    },
    {
      "inputs": [
        {
          "internalType": "address",
          "name": "newCreatorAddress",
          "type": "address"
        }
      ],
      "name": "updateCreatorAddress",
      "outputs": [],
      "stateMutability": "nonpayable",
      "type": "function"
    },
    {
      "stateMutability": "payable",
      "type": "receive"
    }
  ],
  "bytecode": {
    "object": "0x60e060405260016014553480156200001657600080fd5b5060405162002a4038038062002a40833981016040819052620000399162000190565b670de0b6b3a7640000841015620000885760405162461bcd60e51b815260206004820152600e60248201526d0c4c2e6caa0e4d2c6ca78628aa8960931b60448201526064015b60405180910390fd5b612710831015620000cc5760405162461bcd60e51b815260206004820152600d60248201526c0daead8e8d2e0d8d2cae47862f609b1b60448201526064016200007f565b6127108211156200010e5760405162461bcd60e51b815260206004820152600b60248201526a7061796f75743e3130302560a81b60448201526064016200007f565b6001600160a01b038116620001525760405162461bcd60e51b8152602060048201526009602482015268063726561746f723d360bc1b60448201526064016200007f565b608084905260a09290925260c0526000919091556001600255601580546001600160a01b0319166001600160a01b03909216919091179055620001e1565b60008060008060808587031215620001a757600080fd5b845160208601516040870151606088015192965090945092506001600160a01b0381168114620001d657600080fd5b939692955090935050565b60805160a05160c0516128136200022d600039600081816105b101528181611e760152611eb601526000818161036c0152611c7e015260008181610228015261220201526128136000f3fe6080604052600436106101b05760003560e01c80635b4e628b116100ec578063b3115ba61161008a578063d4c8a82a11610064578063d4c8a82a146105d3578063e04efec41461062f578063e927fc5c14610644578063f11526771461067157610204565b8063b3115ba61461054e578063ba541cef14610564578063cee6b3551461059f57610204565b806399de4a22116100c657806399de4a22146104d15780639cbe5efd146104e7578063a9c29d91146104fd578063aed161381461051357610204565b80635b4e628b146103e85780636accd0ab1461042357806391c07823146104a457610204565b8063379607f511610159578063461caa3d11610133578063461caa3d1461035a5780635236434c1461038e5780635708b4cf146103b25780635876aeec146103d257610204565b8063379607f5146103015780633b574ee21461032157806342a5bf3d1461034557610204565b8063159090bd1161018a578063159090bd146102875780632492ef591461028f578063316b9641146102e157610204565b80630561d1d21461021657806311da60b41461025d578063150a54be1461027457610204565b366102045734600360008282546101c791906122de565b90915550506003546040519081527f2ba2169cd2502a6cc4fd55f87f2dcbceef588b593aa4fdc883d4fc62e65ed6a99060200160405180910390a1005b34600360008282546101c791906122de565b34801561022257600080fd5b5061024a7f000000000000000000000000000000000000000000000000000000000000000081565b6040519081526020015b60405180910390f35b34801561026957600080fd5b50610272610686565b005b6102726102823660046122f7565b610aa6565b6102726110f9565b34801561029b57600080fd5b506001546102bc9073ffffffffffffffffffffffffffffffffffffffff1681565b60405173ffffffffffffffffffffffffffffffffffffffff9091168152602001610254565b3480156102ed57600080fd5b506102726102fc366004612392565b61147a565b34801561030d57600080fd5b5061027261031c3660046123b4565b6115bf565b34801561032d57600080fd5b50610336611964565b604051610254939291906123cd565b34801561035157600080fd5b5060075461024a565b34801561036657600080fd5b5061024a7f000000000000000000000000000000000000000000000000000000000000000081565b34801561039a57600080fd5b5060095460ff165b6040519015158152602001610254565b3480156103be57600080fd5b506102bc6103cd36600461245e565b611a16565b3480156103de57600080fd5b5061024a60045481565b3480156103f457600080fd5b506103a2610403366004612480565b600c60209081526000928352604080842090915290825290205460ff1681565b34801561042f57600080fd5b506005546006546007546008546009546104639473ffffffffffffffffffffffffffffffffffffffff169392919060ff1685565b6040805173ffffffffffffffffffffffffffffffffffffffff909616865260208601949094529284019190915260608301521515608082015260a001610254565b3480156104b057600080fd5b5061024a6104bf3660046123b4565b600b6020526000908152604090205481565b3480156104dd57600080fd5b5061024a60135481565b3480156104f357600080fd5b5061024a60025481565b34801561050957600080fd5b5061024a60005481565b34801561051f57600080fd5b506103a261052e366004612480565b600a60209081526000928352604080842090915290825290205460ff1681565b34801561055a57600080fd5b5061024a60035481565b34801561057057600080fd5b506103a261057f366004612480565b600f60209081526000928352604080842090915290825290205460ff1681565b3480156105ab57600080fd5b5061024a7f000000000000000000000000000000000000000000000000000000000000000081565b3480156105df57600080fd5b506106126105ee3660046123b4565b600e6020526000908152604090208054600182015460029092015490919060ff1683565b604080519384526020840192909252151590820152606001610254565b34801561063b57600080fd5b5061024a611a5b565b34801561065057600080fd5b506015546102bc9073ffffffffffffffffffffffffffffffffffffffff1681565b34801561067d57600080fd5b50610336611a6a565b6002601454036106f7576040517f08c379a000000000000000000000000000000000000000000000000000000000815260206004820152600a60248201527f5245454e5452414e43590000000000000000000000000000000000000000000060448201526064015b60405180910390fd5b60026014556040805160a08101825260055473ffffffffffffffffffffffffffffffffffffffff168152600654602082015260075491810191909152600854606082015260095460ff16151560808201819052610780576040517fdefc4c3400000000000000000000000000000000000000000000000000000000815260040160405180910390fd5b80604001514310156107be576040517ffe8e911400000000000000000000000000000000000000000000000000000000815260040160405180910390fd5b604081015140806107fb576040517f1e41751d00000000000000000000000000000000000000000000000000000000815260040160405180910390fd5b66470de4df820000600061080d611b52565b905060008183111561081f5781610821565b825b905080156108f457806003600082825461083b91906124ac565b9091555050604051600090339083908381818185875af1925050503d8060008114610882576040519150601f19603f3d011682016040523d82523d6000602084013e610887565b606091505b50509050806108f2576040517f08c379a000000000000000000000000000000000000000000000000000000000815260206004820152601160248201527f6b656570657220706179206661696c656400000000000000000000000000000060448201526064016106ee565b505b50508251606080850151604080516020810187905273ffffffffffffffffffffffffffffffffffffffff9094169084015290820152600090608001604080517fffffffffffffffffffffffffffffffffffffffffffffffffffffffffffffffe081840301815291815281516020928301206002546000908152600d9093529082205490925060321161098857506000610999565b6008610995600a846124ee565b1090505b600580547fffffffffffffffffffffffff0000000000000000000000000000000000000000169055600060068190556007819055600855600980547fffffffffffffffffffffffffffffffffffffffffffffffffffffffffffffff001690558015610a2f578451610a0990611b7b565b6002546000908152600d6020526040902054603211610a2a57610a2a611d3c565b610a37565b610a37611d3c565b8451606080870151604080518515158152602081018790529081019190915273ffffffffffffffffffffffffffffffffffffffff909216917f70269c4de1853bd69b10c1bd439721e36732825ce14e2fbc5213febaacaaf9af910160405180910390a250506001601455505050565b600260145403610b12576040517f08c379a000000000000000000000000000000000000000000000000000000000815260206004820152600a60248201527f5245454e5452414e43590000000000000000000000000000000000000000000060448201526064016106ee565b6002601455670de0b6b3a7640000341015610b69576040517f7c83fcf0000000000000000000000000000000000000000000000000000000008152346004820152670de0b6b3a764000060248201526044016106ee565b604080516060810182526010805473ffffffffffffffffffffffffffffffffffffffff16825260115460208301526012805460009484019190610bab90612502565b80601f0160208091040260200160405190810160405280929190818152602001828054610bd790612502565b8015610c245780601f10610bf957610100808354040283529160200191610c24565b820191906000526020600020905b815481529060010190602001808311610c0757829003601f168201915b50505091909252505081519192505073ffffffffffffffffffffffffffffffffffffffff16610dc4573460036000828254610c5f91906122de565b925050819055503460136000828254610c7891906122de565b9250508190555060405180606001604052803373ffffffffffffffffffffffffffffffffffffffff16815260200134815260200184848080601f01602080910402602001604051908101604052809392919081815260200183838082843760009201919091525050509152508051601080547fffffffffffffffffffffffff00000000000000000000000000000000000000001673ffffffffffffffffffffffffffffffffffffffff90921691909117815560208201516011556040820151601290610d4490826125d3565b50506003546040519081527f2ba2169cd2502a6cc4fd55f87f2dcbceef588b593aa4fdc883d4fc62e65ed6a9915060200160405180910390a160025460405133917fbcd59d41754af57ee9503b878894bf5fdadb31acb76cb009eacf72ea6ad0822a91610db6913491889188916126ed565b60405180910390a2506110f0565b6000610dd98260200151612ee0612710612228565b905080341015610e1e576040517f7c83fcf0000000000000000000000000000000000000000000000000000000008152346004820152602481018290526044016106ee565b3460036000828254610e3091906122de565b925050819055503460136000828254610e4991906122de565b90915550506003546040519081527f2ba2169cd2502a6cc4fd55f87f2dcbceef588b593aa4fdc883d4fc62e65ed6a99060200160405180910390a1816020015160136000828254610e9a91906124ac565b9091555050602082015160038054600090610eb69084906124ac565b90915550508151602083015160405160009273ffffffffffffffffffffffffffffffffffffffff1691908381818185875af1925050503d8060008114610f18576040519150601f19603f3d011682016040523d82523d6000602084013e610f1d565b606091505b5050905080610f88576040517f08c379a000000000000000000000000000000000000000000000000000000000815260206004820152601560248201527f73706f6e736f7220726566756e64206661696c6564000000000000000000000060448201526064016106ee565b8251602080850151600254604080519283529282015273ffffffffffffffffffffffffffffffffffffffff909216917f93d8bd2b89791caf148e673fa7f739059c13c17f8c3bfc937f953be7257e8110910160405180910390a260405180606001604052803373ffffffffffffffffffffffffffffffffffffffff16815260200134815260200186868080601f01602080910402602001604051908101604052809392919081815260200183838082843760009201919091525050509152508051601080547fffffffffffffffffffffffff00000000000000000000000000000000000000001673ffffffffffffffffffffffffffffffffffffffff909216919091178155602082015160115560408201516012906110a790826125d3565b50506002546040513392507fbcd59d41754af57ee9503b878894bf5fdadb31acb76cb009eacf72ea6ad0822a916110e49134918a918a91906126ed565b60405180910390a25050505b50506001601455565b600260145403611165576040517f08c379a000000000000000000000000000000000000000000000000000000000815260206004820152600a60248201527f5245454e5452414e43590000000000000000000000000000000000000000000060448201526064016106ee565b600260145560095460ff16156111a7576040517f3eed9ae900000000000000000000000000000000000000000000000000000000815260040160405180910390fd5b6002546000908152600d6020526040902054603281106111f3576040517f6c8c8d2100000000000000000000000000000000000000000000000000000000815260040160405180910390fd5b6031811460008161120657600054611209565b60005b905080341461124d576040517f7c83fcf0000000000000000000000000000000000000000000000000000000008152346004820152602481018290526044016106ee565b6002546000908152600c6020908152604080832033845290915290205460ff16156112aa576002546040517f666ad0c70000000000000000000000000000000000000000000000000000000081526004016106ee91815260200190565b600280546000908152600c602090815260408083203380855290835281842080547fffffffffffffffffffffffffffffffffffffffffffffffffffffffffffffff0016600190811790915594548452600d8352908320805494850181558352912090910180547fffffffffffffffffffffffff0000000000000000000000000000000000000000169091179055341561138b57346003600082825461134f91906122de565b90915550506003546040519081527f2ba2169cd2502a6cc4fd55f87f2dcbceef588b593aa4fdc883d4fc62e65ed6a99060200160405180910390a15b60006113984360016122de565b6040805160a08101825233808252346020808401829052838501869052600254606080860182905260016080909601869052600580547fffffffffffffffffffffffff00000000000000000000000000000000000000001686179055600684905560078890556008829055600980547fffffffffffffffffffffffffffffffffffffffffffffffffffffffffffffff00169096179095558551928352908201869052938101939093529293507f6c5dd09f0a96a53c958d8e8898a12d877ec2853d8e61f9cb45c0c36adaf900c9910160405180910390a2505060016014555050565b60155473ffffffffffffffffffffffffffffffffffffffff1633146114fb576040517f08c379a000000000000000000000000000000000000000000000000000000000815260206004820152600b60248201527f6e6f742d63726561746f7200000000000000000000000000000000000000000060448201526064016106ee565b73ffffffffffffffffffffffffffffffffffffffff8116611578576040517f08c379a000000000000000000000000000000000000000000000000000000000815260206004820152600960248201527f63726561746f723d30000000000000000000000000000000000000000000000060448201526064016106ee565b601580547fffffffffffffffffffffffff00000000000000000000000000000000000000001673ffffffffffffffffffffffffffffffffffffffff92909216919091179055565b60026014540361162b576040517f08c379a000000000000000000000000000000000000000000000000000000000815260206004820152600a60248201527f5245454e5452414e43590000000000000000000000000000000000000000000060448201526064016106ee565b600260148190556000828152600e60209081526040918290208251606081018452815481526001820154928101929092529092015460ff1615159082018190526116a1576040517f969bf72800000000000000000000000000000000000000000000000000000000815260040160405180910390fd5b6000828152600a6020908152604080832033845290915290205460ff166116f4576040517f622aebc300000000000000000000000000000000000000000000000000000000815260040160405180910390fd5b6000828152600f6020908152604080832033845290915290205460ff1615611748576040517f646cf55800000000000000000000000000000000000000000000000000000000815260040160405180910390fd5b6000816020015160001461176c5760208201518251611767919061274b565b61176f565b60005b9050806000036117ab576040517f969bf72800000000000000000000000000000000000000000000000000000000815260040160405180910390fd5b6000838152600f60209081526040808320338452909152902080547fffffffffffffffffffffffffffffffffffffffffffffffffffffffffffffff00166001179055600454811115611859576040517f08c379a000000000000000000000000000000000000000000000000000000000815260206004820152601160248201527f7265736572766520756e646572666c6f7700000000000000000000000000000060448201526064016106ee565b806004600082825461186b91906124ac565b9091555050604051600090339083908381818185875af1925050503d80600081146118b2576040519150601f19603f3d011682016040523d82523d6000602084013e6118b7565b606091505b5050905080611922576040517f08c379a000000000000000000000000000000000000000000000000000000000815260206004820152601560248201527f636c61696d207472616e73666572206661696c6564000000000000000000000060448201526064016106ee565b604051828152849033907f34fcbac0073d7c3d388e51312faf357774904998eeb8fca628b9e6f65ee1cbf79060200160405180910390a3505060016014555050565b601080546011546012805473ffffffffffffffffffffffffffffffffffffffff90931693919261199390612502565b80601f01602080910402602001604051908101604052809291908181526020018280546119bf90612502565b8015611a0c5780601f106119e157610100808354040283529160200191611a0c565b820191906000526020600020905b8154815290600101906020018083116119ef57829003601f168201915b5050505050905083565b600d6020528160005260406000208181548110611a3257600080fd5b60009182526020909120015473ffffffffffffffffffffffffffffffffffffffff169150829050565b6000611a65611b52565b905090565b60408051606081810183526010805473ffffffffffffffffffffffffffffffffffffffff168352601154602084015260128054600095869586949093909291840191611ab590612502565b80601f0160208091040260200160405190810160405280929190818152602001828054611ae190612502565b8015611b2e5780601f10611b0357610100808354040283529160200191611b2e565b820191906000526020600020905b815481529060010190602001808311611b1157829003601f168201915b50505091909252505081516020830151604090930151909792965094509092505050565b60035460135460009190808211611b6a576000611b74565b611b7481836124ac565b9250505090565b6002546000908152600a6020908152604080832073ffffffffffffffffffffffffffffffffffffffff8516845290915290205460ff16611c3557600280546000908152600a6020908152604080832073ffffffffffffffffffffffffffffffffffffffff86168452825280832080547fffffffffffffffffffffffffffffffffffffffffffffffffffffffffffffff0016600190811790915593548352600b90915281208054909190611c2f9084906122de565b90915550505b600180547fffffffffffffffffffffffff00000000000000000000000000000000000000001673ffffffffffffffffffffffffffffffffffffffff8316179055600054611ca5907f0000000000000000000000000000000000000000000000000000000000000000612710612228565b600081905560025460408051918252602082019290925273ffffffffffffffffffffffffffffffffffffffff8316917e40870511fcd025e35c10818502bec08721e7745dbed12dc9d96f6427581411910160405180910390a27f2ba2169cd2502a6cc4fd55f87f2dcbceef588b593aa4fdc883d4fc62e65ed6a9600354604051611d3191815260200190565b60405180910390a150565b6000611d46611b52565b905060008167016345785d8a00001115611d605781611d6a565b67016345785d8a00005b90508015611e55578060036000828254611d8491906124ac565b909155505060155460405160009173ffffffffffffffffffffffffffffffffffffffff169083908381818185875af1925050503d8060008114611de3576040519150601f19603f3d011682016040523d82523d6000602084013e611de8565b606091505b5050905080611e53576040517f08c379a000000000000000000000000000000000000000000000000000000000815260206004820152601260248201527f63726561746f7220706179206661696c6564000000000000000000000000000060448201526064016106ee565b505b6002546000908152600d6020526040812054908115801590611e97575060007f0000000000000000000000000000000000000000000000000000000000000000115b15612038576000611ea6611b52565b90508015611ee857612710611edb7f00000000000000000000000000000000000000000000000000000000000000008361275f565b611ee5919061274b565b91505b8115612036578160036000828254611f0091906124ac565b9091555060009050611f12848461274b565b90508015612034576002546000908152600d60205260408120805490915b81811015612030576000838281548110611f4c57611f4c612776565b600091825260208220015460405173ffffffffffffffffffffffffffffffffffffffff9091169187919081818185875af1925050503d8060008114611fad576040519150601f19603f3d011682016040523d82523d6000602084013e611fb2565b606091505b505090508061201d576040517f08c379a000000000000000000000000000000000000000000000000000000000815260206004820152601660248201527f7061727469636970616e7420706179206661696c65640000000000000000000060448201526064016106ee565b5080612028816127a5565b915050611f30565b5050505b505b505b604080516060808201835283825260208083018681526001848601818152600280546000908152600e8652889020965187559251918601919091555193810180547fffffffffffffffffffffffffffffffffffffffffffffffffffffffffffffff00169415159490941790935591546003548451868152938401879052938301939093527fff9d41e1547acb5eda1e3bac0c795f57760c96016cdd641af6bdd90270a768f3910160405180910390a27f2ba2169cd2502a6cc4fd55f87f2dcbceef588b593aa4fdc883d4fc62e65ed6a960035460405161211a91815260200190565b60405180910390a16000601354118061214a575060105473ffffffffffffffffffffffffffffffffffffffff1615155b156121be5760006013819055601080547fffffffffffffffffffffffff000000000000000000000000000000000000000016815560118290559061218f601282612259565b50506002546040517f2aceb5e6de828c86a2adae4aee75a748979d2e1108b075412b068d8764aaa99090600090a25b6001600260008282546121d191906122de565b9091555050600180547fffffffffffffffffffffffff000000000000000000000000000000000000000016905550507f00000000000000000000000000000000000000000000000000000000000000006000555050565b6000838302801561224d578260018483010381612247576122476124bf565b04612250565b60005b95945050505050565b50805461226590612502565b6000825580601f10612275575050565b601f0160209004906000526020600020908101906122939190612296565b50565b5b808211156122ab5760008155600101612297565b5090565b7f4e487b7100000000000000000000000000000000000000000000000000000000600052601160045260246000fd5b808201808211156122f1576122f16122af565b92915050565b6000806020838503121561230a57600080fd5b823567ffffffffffffffff8082111561232257600080fd5b818501915085601f83011261233657600080fd5b81358181111561234557600080fd5b86602082850101111561235757600080fd5b60209290920196919550909350505050565b803573ffffffffffffffffffffffffffffffffffffffff8116811461238d57600080fd5b919050565b6000602082840312156123a457600080fd5b6123ad82612369565b9392505050565b6000602082840312156123c657600080fd5b5035919050565b73ffffffffffffffffffffffffffffffffffffffff8416815260006020848184015260606040840152835180606085015260005b8181101561241d57858101830151858201608001528201612401565b5060006080828601015260807fffffffffffffffffffffffffffffffffffffffffffffffffffffffffffffffe0601f83011685010192505050949350505050565b6000806040838503121561247157600080fd5b50508035926020909101359150565b6000806040838503121561249357600080fd5b823591506124a360208401612369565b90509250929050565b818103818111156122f1576122f16122af565b7f4e487b7100000000000000000000000000000000000000000000000000000000600052601260045260246000fd5b6000826124fd576124fd6124bf565b500690565b600181811c9082168061251657607f821691505b60208210810361254f577f4e487b7100000000000000000000000000000000000000000000000000000000600052602260045260246000fd5b50919050565b7f4e487b7100000000000000000000000000000000000000000000000000000000600052604160045260246000fd5b601f8211156125ce57600081815260208120601f850160051c810160208610156125ab5750805b601f850160051c820191505b818110156125ca578281556001016125b7565b5050505b505050565b815167ffffffffffffffff8111156125ed576125ed612555565b612601816125fb8454612502565b84612584565b602080601f831160018114612654576000841561261e5750858301515b7fffffffffffffffffffffffffffffffffffffffffffffffffffffffffffffffff600386901b1c1916600185901b1785556125ca565b6000858152602081207fffffffffffffffffffffffffffffffffffffffffffffffffffffffffffffffe08616915b828110156126a157888601518255948401946001909101908401612682565b50858210156126dd57878501517fffffffffffffffffffffffffffffffffffffffffffffffffffffffffffffffff600388901b60f8161c191681555b5050505050600190811b01905550565b8481526060602082015282606082015282846080830137600060808483010152600060807fffffffffffffffffffffffffffffffffffffffffffffffffffffffffffffffe0601f860116830101905082604083015295945050505050565b60008261275a5761275a6124bf565b500490565b80820281158282048414176122f1576122f16122af565b7f4e487b7100000000000000000000000000000000000000000000000000000000600052603260045260246000fd5b60007fffffffffffffffffffffffffffffffffffffffffffffffffffffffffffffffff82036127d6576127d66122af565b506001019056fea2646970667358221220429fddb05ea88f414d208972bc1f41ba3f6829691dab741cb95556dab629364c64736f6c63430008130033",
    "linkReferences": {}
  },
  "methodIdentifiers": {
    "availablePot()": "e04efec4",
    "baseEntryPriceWei()": "0561d1d2",
    "claim(uint256)": "379607f5",
    "creatorAddress()": "e927fc5c",
    "currentEntryPriceWei()": "a9c29d91",
    "currentHolderAddress()": "2492ef59",
    "currentRoundId()": "9cbe5efd",
    "currentRoundSponsorInfo()": "3b574ee2",
    "didHoldInRound(uint256,address)": "aed16138",
    "getSponsor()": "f1152677",
    "hasClaimedForRound(uint256,address)": "ba541cef",
    "hasPending()": "5236434c",
    "hasPlayedInRound(uint256,address)": "5b4e628b",
    "participantsByRound(uint256,uint256)": "5708b4cf",
    "pendingAttempt()": "6accd0ab",
    "pendingTargetBlock()": "42a5bf3d",
    "potBalanceWei()": "b3115ba6",
    "priceIncreaseMultiplierBps()": "461caa3d",
    "roundIdToRoundInfo(uint256)": "d4c8a82a",
    "roundLossPayoutPercentBps()": "cee6b355",
    "settle()": "11da60b4",
    "sponsorPot(string)": "150a54be",
    "sponsorReservedWei()": "99de4a22",
    "take()": "159090bd",
    "totalReservedForClaimsWei()": "5876aeec",
    "uniqueHoldersCountInRound(uint256)": "91c07823",
    "updateCreatorAddress(address)": "316b9641"
  },
  "id": 21
}