{"abi":[{"type":"constructor","inputs":[{"name":"baseEntryPriceWei_","type":"uint256","internalType":"uint256"},{"name":"priceIncreaseMultiplierBps_","type":"uint256","internalType":"uint256"},{"name":"creatorAddress_","type":"address","internalType":"address"},{"name":"keeperRewardWei_","type":"uint256","internalType":"uint256"},{"name":"creatorFeeWei_","type":"uint256","internalType":"uint256"}],"stateMutability":"nonpayable"},{"type":"fallback","stateMutability":"payable"},{"type":"receive","stateMutability":"payable"},{"type":"function","name":"availablePot","inputs":[],"outputs":[{"name":"","type":"uint256","internalType":"uint256"}],"stateMutability":"view"},{"type":"function","name":"baseEntryPriceWei","inputs":[],"outputs":[{"name":"","type":"uint256","internalType":"uint256"}],"stateMutability":"view"},{"type":"function","name":"creatorAddress","inputs":[],"outputs":[{"name":"","type":"address","internalType":"address"}],"stateMutability":"view"},{"type":"function","name":"creatorFeeWei","inputs":[],"outputs":[{"name":"","type":"uint256","internalType":"uint256"}],"stateMutability":"view"},{"type":"function","name":"currentEntryPriceWei","inputs":[],"outputs":[{"name":"","type":"uint256","internalType":"uint256"}],"stateMutability":"view"},{"type":"function","name":"currentHolderAddress","inputs":[],"outputs":[{"name":"","type":"address","internalType":"address"}],"stateMutability":"view"},{"type":"function","name":"currentRoundId","inputs":[],"outputs":[{"name":"","type":"uint256","internalType":"uint256"}],"stateMutability":"view"},{"type":"function","name":"currentRoundSponsorInfo","inputs":[],"outputs":[{"name":"sponsorAddress","type":"address","internalType":"address"},{"name":"sponsoredAmountWei","type":"uint256","internalType":"uint256"},{"name":"sponsorMessage","type":"string","internalType":"string"}],"stateMutability":"view"},{"type":"function","name":"getSponsor","inputs":[],"outputs":[{"name":"sponsor","type":"address","internalType":"address"},{"name":"amount","type":"uint256","internalType":"uint256"},{"name":"message","type":"string","internalType":"string"}],"stateMutability":"view"},{"type":"function","name":"hasPending","inputs":[],"outputs":[{"name":"","type":"bool","internalType":"bool"}],"stateMutability":"view"},{"type":"function","name":"hasPlayedInRound","inputs":[{"name":"","type":"uint256","internalType":"uint256"},{"name":"","type":"address","internalType":"address"}],"outputs":[{"name":"","type":"bool","internalType":"bool"}],"stateMutability":"view"},{"type":"function","name":"keeperRewardWei","inputs":[],"outputs":[{"name":"","type":"uint256","internalType":"uint256"}],"stateMutability":"view"},{"type":"function","name":"participantsByRound","inputs":[{"name":"","type":"uint256","internalType":"uint256"},{"name":"","type":"uint256","internalType":"uint256"}],"outputs":[{"name":"","type":"address","internalType":"address"}],"stateMutability":"view"},{"type":"function","name":"pendingAttempt","inputs":[],"outputs":[{"name":"playerAddress","type":"address","internalType":"address"},{"name":"amountPaidWei","type":"uint256","internalType":"uint256"},{"name":"settlementTargetBlockNumber","type":"uint256","internalType":"uint256"},{"name":"createdInRoundId","type":"uint256","internalType":"uint256"},{"name":"exists","type":"bool","internalType":"bool"}],"stateMutability":"view"},{"type":"function","name":"pendingTargetBlock","inputs":[],"outputs":[{"name":"","type":"uint256","internalType":"uint256"}],"stateMutability":"view"},{"type":"function","name":"potBalanceWei","inputs":[],"outputs":[{"name":"","type":"uint256","internalType":"uint256"}],"stateMutability":"view"},{"type":"function","name":"priceIncreaseMultiplierBps","inputs":[],"outputs":[{"name":"","type":"uint256","internalType":"uint256"}],"stateMutability":"view"},{"type":"function","name":"settle","inputs":[],"outputs":[],"stateMutability":"nonpayable"},{"type":"function","name":"sponsorPot","inputs":[{"name":"message_","type":"string","internalType":"string"}],"outputs":[],"stateMutability":"payable"},{"type":"function","name":"sponsorReservedWei","inputs":[],"outputs":[{"name":"","type":"uint256","internalType":"uint256"}],"stateMutability":"view"},{"type":"function","name":"take","inputs":[],"outputs":[],"stateMutability":"payable"},{"type":"function","name":"updateCreatorAddress","inputs":[{"name":"newCreatorAddress","type":"address","internalType":"address"}],"outputs":[],"stateMutability":"nonpayable"},{"type":"event","name":"NewHolder","inputs":[{"name":"holder","type":"address","indexed":true,"internalType":"address"},{"name":"roundId","type":"uint256","indexed":false,"internalType":"uint256"},{"name":"newPrice","type":"uint256","indexed":false,"internalType":"uint256"}],"anonymous":false},{"type":"event","name":"ParticipantPayoutFailed","inputs":[{"name":"participant","type":"address","indexed":true,"internalType":"address"},{"name":"amount","type":"uint256","indexed":false,"internalType":"uint256"},{"name":"roundId","type":"uint256","indexed":false,"internalType":"uint256"}],"anonymous":false},{"type":"event","name":"PotUpdated","inputs":[{"name":"newPot","type":"uint256","indexed":false,"internalType":"uint256"}],"anonymous":false},{"type":"event","name":"RoundEnded","inputs":[{"name":"roundId","type":"uint256","indexed":true,"internalType":"uint256"},{"name":"payoutAmount","type":"uint256","indexed":false,"internalType":"uint256"},{"name":"numEligible","type":"uint256","indexed":false,"internalType":"uint256"},{"name":"potAfter","type":"uint256","indexed":false,"internalType":"uint256"}],"anonymous":false},{"type":"event","name":"Settle","inputs":[{"name":"player","type":"address","indexed":true,"internalType":"address"},{"name":"win","type":"bool","indexed":false,"internalType":"bool"},{"name":"randomness","type":"uint256","indexed":false,"internalType":"uint256"},{"name":"roundId","type":"uint256","indexed":false,"internalType":"uint256"}],"anonymous":false},{"type":"event","name":"SponsorCleared","inputs":[{"name":"roundId","type":"uint256","indexed":true,"internalType":"uint256"}],"anonymous":false},{"type":"event","name":"SponsorRefundFailed","inputs":[{"name":"previousSponsor","type":"address","indexed":true,"internalType":"address"},{"name":"amount","type":"uint256","indexed":false,"internalType":"uint256"},{"name":"roundId","type":"uint256","indexed":false,"internalType":"uint256"}],"anonymous":false},{"type":"event","name":"SponsorReplaced","inputs":[{"name":"previousSponsor","type":"address","indexed":true,"internalType":"address"},{"name":"refundAmount","type":"uint256","indexed":false,"internalType":"uint256"},{"name":"roundId","type":"uint256","indexed":false,"internalType":"uint256"}],"anonymous":false},{"type":"event","name":"SponsorUpdated","inputs":[{"name":"sponsor","type":"address","indexed":true,"internalType":"address"},{"name":"amount","type":"uint256","indexed":false,"internalType":"uint256"},{"name":"message","type":"string","indexed":false,"internalType":"string"},{"name":"roundId","type":"uint256","indexed":false,"internalType":"uint256"}],"anonymous":false},{"type":"event","name":"Take","inputs":[{"name":"player","type":"address","indexed":true,"internalType":"address"},{"name":"pricePaid","type":"uint256","indexed":false,"internalType":"uint256"},{"name":"targetBlock","type":"uint256","indexed":false,"internalType":"uint256"},{"name":"roundId","type":"uint256","indexed":false,"internalType":"uint256"}],"anonymous":false},{"type":"error","name":"AlreadyPlayedThisRound","inputs":[{"name":"roundId","type":"uint256","internalType":"uint256"}]},{"type":"error","name":"InvalidAmount","inputs":[{"name":"providedAmountWei","type":"uint256","internalType":"uint256"},{"name":"expectedAmountWeiOrMinWei","type":"uint256","internalType":"uint256"}]},{"type":"error","name":"MaxParticipantsReached","inputs":[]},{"type":"error","name":"NoPendingAttempt","inputs":[]},{"type":"error","name":"PendingAttemptExists","inputs":[]},{"type":"error","name":"StaleBlockhash","inputs":[]},{"type":"error","name":"TooSoonToSettle","inputs":[]}],"bytecode":{"object":"0x6101006040526001600f553480156200001757600080fd5b5060405162002447380380620024478339810160408190526200003a916200014a565b600085116200007e5760405162461bcd60e51b815260206004820152600b60248201526a06261736550726963653d360ac1b60448201526064015b60405180910390fd5b612710841015620000c25760405162461bcd60e51b815260206004820152600d60248201526c0daead8e8d2e0d8d2cae47862f609b1b604482015260640162000075565b6001600160a01b038316620001065760405162461bcd60e51b8152602060048201526009602482015268063726561746f723d360bc1b604482015260640162000075565b608085905260a09390935260c05260e0919091526000919091556001600255601080546001600160a01b0319166001600160a01b03909216919091179055620001a3565b600080600080600060a086880312156200016357600080fd5b85516020870151604088015191965094506001600160a01b03811681146200018a57600080fd5b6060870151608090970151959894975095949392505050565b60805160a05160c05160e05161224762000200600039600081816104d5015281816117fd015261182a0152600081816102bc01526106da015260008181610349015261172e0152600081816101f10152611be101526122476000f3fe6080604052600436106101795760003560e01c80635708b4cf116100cb578063a9c29d911161007f578063e04efec411610059578063e04efec4146104f7578063e927fc5c1461050c578063f115267714610539576101cd565b8063a9c29d9114610497578063b3115ba6146104ad578063b9ae771b146104c3576101cd565b80636accd0ab116100b05780636accd0ab146103ea57806399de4a221461046b5780639cbe5efd14610481576101cd565b80635708b4cf1461038f5780635b4e628b146103af576101cd565b80632f9cb8f21161012d57806342a5bf3d1161010757806342a5bf3d14610322578063461caa3d146103375780635236434c1461036b576101cd565b80632f9cb8f2146102aa578063316b9641146102de5780633b574ee2146102fe576101cd565b8063150a54be1161015e578063150a54be1461023d578063159090bd146102505780632492ef5914610258576101cd565b80630561d1d2146101df57806311da60b414610226576101cd565b366101cd5734600360008282546101909190611d3f565b90915550506003546040519081527f2ba2169cd2502a6cc4fd55f87f2dcbceef588b593aa4fdc883d4fc62e65ed6a99060200160405180910390a1005b34600360008282546101909190611d3f565b3480156101eb57600080fd5b506102137f000000000000000000000000000000000000000000000000000000000000000081565b6040519081526020015b60405180910390f35b34801561023257600080fd5b5061023b61054e565b005b61023b61024b366004611d57565b610943565b61023b611018565b34801561026457600080fd5b506001546102859073ffffffffffffffffffffffffffffffffffffffff1681565b60405173ffffffffffffffffffffffffffffffffffffffff909116815260200161021d565b3480156102b657600080fd5b506102137f000000000000000000000000000000000000000000000000000000000000000081565b3480156102ea57600080fd5b5061023b6102f9366004611df2565b611389565b34801561030a57600080fd5b506103136114ce565b60405161021d93929190611e0d565b34801561032e57600080fd5b50600654610213565b34801561034357600080fd5b506102137f000000000000000000000000000000000000000000000000000000000000000081565b34801561037757600080fd5b5060085460ff165b604051901515815260200161021d565b34801561039b57600080fd5b506102856103aa366004611ea5565b611580565b3480156103bb57600080fd5b5061037f6103ca366004611ec7565b600960209081526000928352604080842090915290825290205460ff1681565b3480156103f657600080fd5b5060045460055460065460075460085461042a9473ffffffffffffffffffffffffffffffffffffffff169392919060ff1685565b6040805173ffffffffffffffffffffffffffffffffffffffff909616865260208601949094529284019190915260608301521515608082015260a00161021d565b34801561047757600080fd5b50610213600e5481565b34801561048d57600080fd5b5061021360025481565b3480156104a357600080fd5b5061021360005481565b3480156104b957600080fd5b5061021360035481565b3480156104cf57600080fd5b506102137f000000000000000000000000000000000000000000000000000000000000000081565b34801561050357600080fd5b506102136115c5565b34801561051857600080fd5b506010546102859073ffffffffffffffffffffffffffffffffffffffff1681565b34801561054557600080fd5b506103136115d4565b6002600f54036105bf576040517f08c379a000000000000000000000000000000000000000000000000000000000815260206004820152600a60248201527f5245454e5452414e43590000000000000000000000000000000000000000000060448201526064015b60405180910390fd5b6002600f556040805160a08101825260045473ffffffffffffffffffffffffffffffffffffffff168152600554602082015260065491810191909152600754606082015260085460ff16151560808201819052610648576040517fdefc4c3400000000000000000000000000000000000000000000000000000000815260040160405180910390fd5b6040810151610658906002611d3f565b431015610691576040517ffe8e911400000000000000000000000000000000000000000000000000000000815260040160405180910390fd5b600061069e600143611ef3565b409050806106d8576040517f1e41751d00000000000000000000000000000000000000000000000000000000815260040160405180910390fd5b7f000000000000000000000000000000000000000000000000000000000000000080156107935760006107096116bc565b905060008183111561071b578161071d565b825b9050801561079057604051600090339083908381818185875af1925050503d8060008114610767576040519150601f19603f3d011682016040523d82523d6000602084013e61076c565b606091505b50509050801561078e5781600360008282546107889190611ef3565b90915550505b505b50505b8251606080850151604080516020810187905273ffffffffffffffffffffffffffffffffffffffff9094169084015290820152600090608001604080517fffffffffffffffffffffffffffffffffffffffffffffffffffffffffffffffe081840301815291815281516020928301206002546000908152600a9093529082205490925060321161082557506000610836565b6008610832600a84611f39565b1090505b600480547fffffffffffffffffffffffff0000000000000000000000000000000000000000169055600060058190556006819055600755600880547fffffffffffffffffffffffffffffffffffffffffffffffffffffffffffffff0016905580156108cc5784516108a6906116e5565b6002546000908152600a60205260409020546032116108c7576108c76117ec565b6108d4565b6108d46117ec565b8451606080870151604080518515158152602081018790529081019190915273ffffffffffffffffffffffffffffffffffffffff909216917f70269c4de1853bd69b10c1bd439721e36732825ce14e2fbc5213febaacaaf9af910160405180910390a250506001600f55505050565b6002600f54036109af576040517f08c379a000000000000000000000000000000000000000000000000000000000815260206004820152600a60248201527f5245454e5452414e43590000000000000000000000000000000000000000000060448201526064016105b6565b6002600f55670de0b6b3a7640000341015610a06576040517f7c83fcf0000000000000000000000000000000000000000000000000000000008152346004820152670de0b6b3a764000060248201526044016105b6565b610100811115610a72576040517f08c379a000000000000000000000000000000000000000000000000000000000815260206004820152600c60248201527f6d736720746f6f206c6f6e67000000000000000000000000000000000000000060448201526064016105b6565b60408051606081018252600b805473ffffffffffffffffffffffffffffffffffffffff168252600c546020830152600d805460009484019190610ab490611f4d565b80601f0160208091040260200160405190810160405280929190818152602001828054610ae090611f4d565b8015610b2d5780601f10610b0257610100808354040283529160200191610b2d565b820191906000526020600020905b815481529060010190602001808311610b1057829003601f168201915b50505091909252505081519192505073ffffffffffffffffffffffffffffffffffffffff16610ccd573460036000828254610b689190611d3f565b9250508190555034600e6000828254610b819190611d3f565b9250508190555060405180606001604052803373ffffffffffffffffffffffffffffffffffffffff16815260200134815260200184848080601f01602080910402602001604051908101604052809392919081815260200183838082843760009201919091525050509152508051600b80547fffffffffffffffffffffffff00000000000000000000000000000000000000001673ffffffffffffffffffffffffffffffffffffffff9092169190911781556020820151600c556040820151600d90610c4d908261201e565b50506003546040519081527f2ba2169cd2502a6cc4fd55f87f2dcbceef588b593aa4fdc883d4fc62e65ed6a9915060200160405180910390a160025460405133917fbcd59d41754af57ee9503b878894bf5fdadb31acb76cb009eacf72ea6ad0822a91610cbf91349188918891612138565b60405180910390a25061100f565b6000610ce28260200151612ee0612710611c07565b905080341015610d27576040517f7c83fcf0000000000000000000000000000000000000000000000000000000008152346004820152602481018290526044016105b6565b3460036000828254610d399190611d3f565b9250508190555034600e6000828254610d529190611d3f565b90915550506003546040519081527f2ba2169cd2502a6cc4fd55f87f2dcbceef588b593aa4fdc883d4fc62e65ed6a99060200160405180910390a18160200151600e6000828254610da39190611ef3565b90915550508151602083015160405160009273ffffffffffffffffffffffffffffffffffffffff1691908381818185875af1925050503d8060008114610e05576040519150601f19603f3d011682016040523d82523d6000602084013e610e0a565b606091505b505090508015610e4c57826020015160035410610e4257826020015160036000828254610e379190611ef3565b90915550610ea79050565b6000600355610ea7565b8251602080850151600254604080519283529282015273ffffffffffffffffffffffffffffffffffffffff909216917fb59906ee2e76ea3f48cb6acaf64087397395f95c120e0f713a37b7e446e094a4910160405180910390a25b8251602080850151600254604080519283529282015273ffffffffffffffffffffffffffffffffffffffff909216917f93d8bd2b89791caf148e673fa7f739059c13c17f8c3bfc937f953be7257e8110910160405180910390a260405180606001604052803373ffffffffffffffffffffffffffffffffffffffff16815260200134815260200186868080601f01602080910402602001604051908101604052809392919081815260200183838082843760009201919091525050509152508051600b80547fffffffffffffffffffffffff00000000000000000000000000000000000000001673ffffffffffffffffffffffffffffffffffffffff9092169190911781556020820151600c556040820151600d90610fc6908261201e565b50506002546040513392507fbcd59d41754af57ee9503b878894bf5fdadb31acb76cb009eacf72ea6ad0822a916110039134918a918a9190612138565b60405180910390a25050505b50506001600f55565b6002600f5403611084576040517f08c379a000000000000000000000000000000000000000000000000000000000815260206004820152600a60248201527f5245454e5452414e43590000000000000000000000000000000000000000000060448201526064016105b6565b6002600f5560085460ff16156110c6576040517f3eed9ae900000000000000000000000000000000000000000000000000000000815260040160405180910390fd5b6002546000908152600a602052604090205460328110611112576040517f6c8c8d2100000000000000000000000000000000000000000000000000000000815260040160405180910390fd5b6031811460008161112557600054611128565b60005b905080341461116c576040517f7c83fcf0000000000000000000000000000000000000000000000000000000008152346004820152602481018290526044016105b6565b600254600090815260096020908152604080832033845290915290205460ff16156111c9576002546040517f666ad0c70000000000000000000000000000000000000000000000000000000081526004016105b691815260200190565b6002805460009081526009602090815260408083203380855290835281842080547fffffffffffffffffffffffffffffffffffffffffffffffffffffffffffffff0016600190811790915594548452600a8352908320805494850181558352912090910180547fffffffffffffffffffffffff000000000000000000000000000000000000000016909117905534156112aa57346003600082825461126e9190611d3f565b90915550506003546040519081527f2ba2169cd2502a6cc4fd55f87f2dcbceef588b593aa4fdc883d4fc62e65ed6a99060200160405180910390a15b6040805160a0810182523380825234602080840182905243848601819052600254606080870182905260016080909701879052600480547fffffffffffffffffffffffff00000000000000000000000000000000000000001687179055600585905560068390556007829055600880547fffffffffffffffffffffffffffffffffffffffffffffffffffffffffffffff001690971790965586519384529183018190529482015290917f6c5dd09f0a96a53c958d8e8898a12d877ec2853d8e61f9cb45c0c36adaf900c9910160405180910390a250506001600f555050565b60105473ffffffffffffffffffffffffffffffffffffffff16331461140a576040517f08c379a000000000000000000000000000000000000000000000000000000000815260206004820152600b60248201527f6e6f742d63726561746f7200000000000000000000000000000000000000000060448201526064016105b6565b73ffffffffffffffffffffffffffffffffffffffff8116611487576040517f08c379a000000000000000000000000000000000000000000000000000000000815260206004820152600960248201527f63726561746f723d30000000000000000000000000000000000000000000000060448201526064016105b6565b601080547fffffffffffffffffffffffff00000000000000000000000000000000000000001673ffffffffffffffffffffffffffffffffffffffff92909216919091179055565b600b8054600c54600d805473ffffffffffffffffffffffffffffffffffffffff9093169391926114fd90611f4d565b80601f016020809104026020016040519081016040528092919081815260200182805461152990611f4d565b80156115765780601f1061154b57610100808354040283529160200191611576565b820191906000526020600020905b81548152906001019060200180831161155957829003601f168201915b5050505050905083565b600a602052816000526040600020818154811061159c57600080fd5b60009182526020909120015473ffffffffffffffffffffffffffffffffffffffff169150829050565b60006115cf6116bc565b905090565b6040805160608181018352600b805473ffffffffffffffffffffffffffffffffffffffff168352600c546020840152600d805460009586958694909390929184019161161f90611f4d565b80601f016020809104026020016040519081016040528092919081815260200182805461164b90611f4d565b80156116985780601f1061166d57610100808354040283529160200191611698565b820191906000526020600020905b81548152906001019060200180831161167b57829003601f168201915b50505091909252505081516020830151604090930151909792965094509092505050565b600354600e54600091908082116116d45760006116de565b6116de8183611ef3565b9250505090565b600180547fffffffffffffffffffffffff00000000000000000000000000000000000000001673ffffffffffffffffffffffffffffffffffffffff8316179055600054611755907f0000000000000000000000000000000000000000000000000000000000000000612710611c07565b600081905560025460408051918252602082019290925273ffffffffffffffffffffffffffffffffffffffff8316917e40870511fcd025e35c10818502bec08721e7745dbed12dc9d96f6427581411910160405180910390a27f2ba2169cd2502a6cc4fd55f87f2dcbceef588b593aa4fdc883d4fc62e65ed6a96003546040516117e191815260200190565b60405180910390a150565b60006117f66116bc565b90506000817f00000000000000000000000000000000000000000000000000000000000000001115611828578161184a565b7f00000000000000000000000000000000000000000000000000000000000000005b905080156118d55760105460405160009173ffffffffffffffffffffffffffffffffffffffff169083908381818185875af1925050503d80600081146118ac576040519150601f19603f3d011682016040523d82523d6000602084013e6118b1565b606091505b5050905080156118d35781600360008282546118cd9190611ef3565b90915550505b505b6002546000908152600a6020526040812054908115611a8057478015611a7e5760006119018483612196565b90508015611a7c576002546000908152600a602052604081208054825b81811015611a4357600083828154811061193a5761193a6121aa565b600091825260208220015460405173ffffffffffffffffffffffffffffffffffffffff9091169188919081818185875af1925050503d806000811461199b576040519150601f19603f3d011682016040523d82523d6000602084013e6119a0565b606091505b5050905080156119bb576119b48686611d3f565b9450611a30565b8382815481106119cd576119cd6121aa565b60009182526020918290200154600254604080518a81529384019190915273ffffffffffffffffffffffffffffffffffffffff909116917f31c09e2de6d00d9ec20123f127dd67e87cfd0dc0bdd32e513720ca5fed7c75d6910160405180910390a25b5080611a3b816121d9565b91505061191e565b508215611a76578260035410611a70578260036000828254611a659190611ef3565b90915550611a769050565b60006003555b50909350505b505b505b600254600354604080518481526020810186905280820192909252517fff9d41e1547acb5eda1e3bac0c795f57760c96016cdd641af6bdd90270a768f39181900360600190a27f2ba2169cd2502a6cc4fd55f87f2dcbceef588b593aa4fdc883d4fc62e65ed6a9600354604051611af991815260200190565b60405180910390a16000600e541180611b295750600b5473ffffffffffffffffffffffffffffffffffffffff1615155b15611b9d576000600e819055600b80547fffffffffffffffffffffffff0000000000000000000000000000000000000000168155600c82905590611b6e600d82611cba565b50506002546040517f2aceb5e6de828c86a2adae4aee75a748979d2e1108b075412b068d8764aaa99090600090a25b600160026000828254611bb09190611d3f565b9091555050600180547fffffffffffffffffffffffff000000000000000000000000000000000000000016905550507f00000000000000000000000000000000000000000000000000000000000000006000555050565b6000831580611c14575082155b15611c2157506000611cb3565b7fffffffffffffffffffffffffffffffffffffffffffffffffffffffffffffffff838181611c5157611c51611f0a565b04851115611c60579050611cb3565b8484026000847fffffffffffffffffffffffffffffffffffffffffffffffffffffffffffffffff8184010181611c9857611c98611f0a565b04905082811115611cae57829350505050611cb3565b925050505b9392505050565b508054611cc690611f4d565b6000825580601f10611cd6575050565b601f016020900490600052602060002090810190611cf49190611cf7565b50565b5b80821115611d0c5760008155600101611cf8565b5090565b7f4e487b7100000000000000000000000000000000000000000000000000000000600052601160045260246000fd5b60008219821115611d5257611d52611d10565b500190565b60008060208385031215611d6a57600080fd5b823567ffffffffffffffff80821115611d8257600080fd5b818501915085601f830112611d9657600080fd5b813581811115611da557600080fd5b866020828501011115611db757600080fd5b60209290920196919550909350505050565b803573ffffffffffffffffffffffffffffffffffffffff81168114611ded57600080fd5b919050565b600060208284031215611e0457600080fd5b611cb382611dc9565b73ffffffffffffffffffffffffffffffffffffffff8416815260006020848184015260606040840152835180606085015260005b81811015611e5d57858101830151858201608001528201611e41565b81811115611e6f576000608083870101525b50601f017fffffffffffffffffffffffffffffffffffffffffffffffffffffffffffffffe0169290920160800195945050505050565b60008060408385031215611eb857600080fd5b50508035926020909101359150565b60008060408385031215611eda57600080fd5b82359150611eea60208401611dc9565b90509250929050565b600082821015611f0557611f05611d10565b500390565b7f4e487b7100000000000000000000000000000000000000000000000000000000600052601260045260246000fd5b600082611f4857611f48611f0a565b500690565b600181811c90821680611f6157607f821691505b602082108103611f9a577f4e487b7100000000000000000000000000000000000000000000000000000000600052602260045260246000fd5b50919050565b7f4e487b7100000000000000000000000000000000000000000000000000000000600052604160045260246000fd5b601f82111561201957600081815260208120601f850160051c81016020861015611ff65750805b601f850160051c820191505b8181101561201557828155600101612002565b5050505b505050565b815167ffffffffffffffff81111561203857612038611fa0565b61204c816120468454611f4d565b84611fcf565b602080601f83116001811461209f57600084156120695750858301515b7fffffffffffffffffffffffffffffffffffffffffffffffffffffffffffffffff600386901b1c1916600185901b178555612015565b6000858152602081207fffffffffffffffffffffffffffffffffffffffffffffffffffffffffffffffe08616915b828110156120ec578886015182559484019460019091019084016120cd565b508582101561212857878501517fffffffffffffffffffffffffffffffffffffffffffffffffffffffffffffffff600388901b60f8161c191681555b5050505050600190811b01905550565b8481526060602082015282606082015282846080830137600060808483010152600060807fffffffffffffffffffffffffffffffffffffffffffffffffffffffffffffffe0601f860116830101905082604083015295945050505050565b6000826121a5576121a5611f0a565b500490565b7f4e487b7100000000000000000000000000000000000000000000000000000000600052603260045260246000fd5b60007fffffffffffffffffffffffffffffffffffffffffffffffffffffffffffffffff820361220a5761220a611d10565b506001019056fea26469706673582212201eb352827bb2369b8e27289169c53d277a36ffa70ded38cf237bd2a8df44f2ae64736f6c634300080f0033","linkReferences":{}},"methodIdentifiers":{"availablePot()":"e04efec4","baseEntryPriceWei()":"0561d1d2","creatorAddress()":"e927fc5c","creatorFeeWei()":"b9ae771b","currentEntryPriceWei()":"a9c29d91","currentHolderAddress()":"2492ef59","currentRoundId()":"9cbe5efd","currentRoundSponsorInfo()":"3b574ee2","getSponsor()":"f1152677","hasPending()":"5236434c","hasPlayedInRound(uint256,address)":"5b4e628b","keeperRewardWei()":"2f9cb8f2","participantsByRound(uint256,uint256)":"5708b4cf","pendingAttempt()":"6accd0ab","pendingTargetBlock()":"42a5bf3d","potBalanceWei()":"b3115ba6","priceIncreaseMultiplierBps()":"461caa3d","settle()":"11da60b4","sponsorPot(string)":"150a54be","sponsorReservedWei()":"99de4a22","take()":"159090bd","updateCreatorAddress(address)":"316b9641"},"id":27}